{
  "abi": [
    {
      "inputs": [],
      "stateMutability": "nonpayable",
      "type": "constructor"
    },
    {
      "inputs": [
        {
          "internalType": "address",
          "name": "",
          "type": "address"
        }
      ],
      "name": "candidateInfo",
      "outputs": [
        {
          "internalType": "string",
          "name": "name",
          "type": "string"
        },
        {
          "internalType": "uint256",
          "name": "age",
          "type": "uint256"
        },
        {
          "internalType": "string",
          "name": "symbol",
          "type": "string"
        },
        {
          "internalType": "address",
          "name": "candidateAddress",
          "type": "address"
        }
      ],
      "stateMutability": "view",
      "type": "function"
    },
    {
      "inputs": [
        {
          "internalType": "uint256",
          "name": "",
          "type": "uint256"
        }
      ],
      "name": "candidatesList",
      "outputs": [
        {
          "internalType": "address",
          "name": "",
          "type": "address"
        }
      ],
      "stateMutability": "view",
      "type": "function"
    },
    {
      "inputs": [],
      "name": "contractOwner",
      "outputs": [
        {
          "internalType": "address",
          "name": "",
          "type": "address"
        }
      ],
      "stateMutability": "view",
      "type": "function"
    },
    {
      "inputs": [
        {
          "internalType": "address",
          "name": "_voter",
          "type": "address"
        }
      ],
      "name": "hasValidVoterPass",
      "outputs": [
        {
          "internalType": "bool",
          "name": "",
          "type": "bool"
        }
      ],
      "stateMutability": "view",
      "type": "function"
    },
    {
      "inputs": [
        {
          "internalType": "address",
          "name": "",
          "type": "address"
        }
      ],
      "name": "hasVoted",
      "outputs": [
        {
          "internalType": "bool",
          "name": "",
          "type": "bool"
        }
      ],
      "stateMutability": "view",
      "type": "function"
    },
    {
      "inputs": [
        {
          "internalType": "string",
          "name": "_name",
          "type": "string"
        },
        {
          "internalType": "uint256",
          "name": "_age",
          "type": "uint256"
        },
        {
          "internalType": "string",
          "name": "_symbol",
          "type": "string"
        },
        {
          "internalType": "address",
          "name": "_candidate",
          "type": "address"
        }
      ],
      "name": "registerCandidates",
      "outputs": [],
      "stateMutability": "nonpayable",
      "type": "function"
    },
    {
      "inputs": [
        {
          "internalType": "string",
          "name": "_name",
          "type": "string"
        },
        {
          "internalType": "uint256",
          "name": "_age",
          "type": "uint256"
        },
        {
          "internalType": "address",
          "name": "_voter",
          "type": "address"
        }
      ],
      "name": "registerVoter",
      "outputs": [],
      "stateMutability": "nonpayable",
      "type": "function"
    },
    {
      "inputs": [
        {
          "internalType": "address",
          "name": "",
          "type": "address"
        }
      ],
      "name": "registeredVoters",
      "outputs": [
        {
          "internalType": "bool",
          "name": "",
          "type": "bool"
        }
      ],
      "stateMutability": "view",
      "type": "function"
    },
    {
      "inputs": [],
      "name": "result",
      "outputs": [],
      "stateMutability": "nonpayable",
      "type": "function"
    },
    {
      "inputs": [],
      "name": "setStatus",
      "outputs": [],
      "stateMutability": "nonpayable",
      "type": "function"
    },
    {
      "inputs": [],
      "name": "status",
      "outputs": [
        {
          "internalType": "enum Voting.VotingStatus",
          "name": "",
          "type": "uint8"
        }
      ],
      "stateMutability": "view",
      "type": "function"
    },
    {
      "inputs": [
        {
          "internalType": "address",
          "name": "_candidate",
          "type": "address"
        }
      ],
      "name": "validateCandidate",
      "outputs": [
        {
          "internalType": "bool",
          "name": "",
          "type": "bool"
        }
      ],
      "stateMutability": "view",
      "type": "function"
    },
    {
      "inputs": [
        {
          "internalType": "address",
          "name": "_candidate",
          "type": "address"
        }
      ],
      "name": "vote",
      "outputs": [],
      "stateMutability": "nonpayable",
      "type": "function"
    },
    {
      "inputs": [
        {
          "internalType": "address",
          "name": "_candidate",
          "type": "address"
        }
      ],
      "name": "voteCounts",
      "outputs": [
        {
          "internalType": "uint256",
          "name": "",
          "type": "uint256"
        }
      ],
      "stateMutability": "view",
      "type": "function"
    },
    {
      "inputs": [
        {
          "internalType": "address",
          "name": "",
          "type": "address"
        }
      ],
      "name": "voterInfo",
      "outputs": [
        {
          "internalType": "string",
          "name": "name",
          "type": "string"
        },
        {
          "internalType": "uint256",
          "name": "age",
          "type": "uint256"
        },
        {
          "internalType": "bool",
          "name": "hasValidVoterPass",
          "type": "bool"
        },
        {
          "internalType": "bool",
          "name": "hasVoted",
          "type": "bool"
        },
        {
          "internalType": "address",
          "name": "voterAddress",
          "type": "address"
        }
      ],
      "stateMutability": "view",
      "type": "function"
    },
    {
      "inputs": [
        {
          "internalType": "address",
          "name": "",
          "type": "address"
        }
      ],
      "name": "votesReceived",
      "outputs": [
        {
          "internalType": "uint256",
          "name": "",
          "type": "uint256"
        }
      ],
      "stateMutability": "view",
      "type": "function"
    },
    {
      "inputs": [],
      "name": "winner",
      "outputs": [
        {
          "internalType": "address",
          "name": "",
          "type": "address"
        }
      ],
      "stateMutability": "view",
      "type": "function"
    },
    {
      "inputs": [],
      "name": "winnerVotes",
      "outputs": [
        {
          "internalType": "uint256",
          "name": "",
          "type": "uint256"
        }
      ],
      "stateMutability": "view",
      "type": "function"
    }
  ],
  "devdoc": {
    "kind": "dev",
    "methods": {},
    "version": 1
  },
  "evm": {
    "assembly": "    /* \"vs-contract.sol\":67:3414  contract Voting {... */\n  mstore(0x40, 0x80)\n    /* \"vs-contract.sol\":874:933  constructor() {... */\n  callvalue\n  dup1\n  iszero\n  tag_1\n  jumpi\n  0x00\n  dup1\n  revert\ntag_1:\n  pop\n    /* \"vs-contract.sol\":899:912  contractOwner */\n  0x00\n    /* \"vs-contract.sol\":899:925  contractOwner = msg.sender */\n  dup1\n  sload\n  not(sub(shl(0xa0, 0x01), 0x01))\n  and\n    /* \"vs-contract.sol\":915:925  msg.sender */\n  caller\n    /* \"vs-contract.sol\":899:925  contractOwner = msg.sender */\n  or\n  swap1\n  sstore\n    /* \"vs-contract.sol\":67:3414  contract Voting {... */\n  dataSize(sub_0)\n  dup1\n  dataOffset(sub_0)\n  0x00\n  codecopy\n  0x00\n  return\nstop\n\nsub_0: assembly {\n        /* \"vs-contract.sol\":67:3414  contract Voting {... */\n      mstore(0x40, 0x80)\n      callvalue\n      dup1\n      iszero\n      tag_1\n      jumpi\n      0x00\n      dup1\n      revert\n    tag_1:\n      pop\n      jumpi(tag_2, lt(calldatasize, 0x04))\n      shr(0xe0, calldataload(0x00))\n      dup1\n      0x7b3a74c6\n      gt\n      tag_21\n      jumpi\n      dup1\n      0xcdf58d35\n      gt\n      tag_22\n      jumpi\n      dup1\n      0xdf2d5ec7\n      gt\n      tag_23\n      jumpi\n      dup1\n      0xdf2d5ec7\n      eq\n      tag_18\n      jumpi\n      dup1\n      0xdfbf53ae\n      eq\n      tag_19\n      jumpi\n      dup1\n      0xe965b7c9\n      eq\n      tag_20\n      jumpi\n      0x00\n      dup1\n      revert\n    tag_23:\n      dup1\n      0xcdf58d35\n      eq\n      tag_16\n      jumpi\n      dup1\n      0xce606ee0\n      eq\n      tag_17\n      jumpi\n      0x00\n      dup1\n      revert\n    tag_22:\n      dup1\n      0x7b3a74c6\n      eq\n      tag_12\n      jumpi\n      dup1\n      0x9c0d4436\n      eq\n      tag_13\n      jumpi\n      dup1\n      0xa9ff6df1\n      eq\n      tag_14\n      jumpi\n      dup1\n      0xc0336629\n      eq\n      tag_15\n      jumpi\n      0x00\n      dup1\n      revert\n    tag_21:\n      dup1\n      0x5dfb9f08\n      gt\n      tag_24\n      jumpi\n      dup1\n      0x66a267a9\n      gt\n      tag_25\n      jumpi\n      dup1\n      0x66a267a9\n      eq\n      tag_9\n      jumpi\n      dup1\n      0x6c0ef89d\n      eq\n      tag_10\n      jumpi\n      dup1\n      0x6dd7d8ea\n      eq\n      tag_11\n      jumpi\n      0x00\n      dup1\n      revert\n    tag_25:\n      dup1\n      0x5dfb9f08\n      eq\n      tag_7\n      jumpi\n      dup1\n      0x65372147\n      eq\n      tag_8\n      jumpi\n      0x00\n      dup1\n      revert\n    tag_24:\n      dup1\n      0x09eef43e\n      eq\n      tag_3\n      jumpi\n      dup1\n      0x200d2ed2\n      eq\n      tag_4\n      jumpi\n      dup1\n      0x30c880c3\n      eq\n      tag_5\n      jumpi\n      dup1\n      0x4b841591\n      eq\n      tag_6\n      jumpi\n    tag_2:\n      0x00\n      dup1\n      revert\n        /* \"vs-contract.sol\":425:465  mapping(address => bool) public hasVoted */\n    tag_3:\n      tag_26\n      tag_27\n      calldatasize\n      0x04\n      tag_28\n      jump\t// in\n    tag_27:\n      mstore(0x20, 0x07)\n      0x00\n      swap1\n      dup2\n      mstore\n      0x40\n      swap1\n      keccak256\n      sload\n      0xff\n      and\n      dup2\n      jump\n    tag_26:\n      mload(0x40)\n        /* \"#utility.yul\":571:585   */\n      swap1\n      iszero\n        /* \"#utility.yul\":564:586   */\n      iszero\n        /* \"#utility.yul\":546:587   */\n      dup2\n      mstore\n        /* \"#utility.yul\":534:536   */\n      0x20\n        /* \"#utility.yul\":519:537   */\n      add\n        /* \"vs-contract.sol\":425:465  mapping(address => bool) public hasVoted */\n    tag_30:\n      mload(0x40)\n      dup1\n      swap2\n      sub\n      swap1\n      return\n        /* \"vs-contract.sol\":334:360  VotingStatus public status */\n    tag_4:\n      sload(0x05)\n      tag_32\n      swap1\n      0xff\n      and\n      dup2\n      jump\n    tag_32:\n      mload(0x40)\n      tag_30\n      swap2\n      swap1\n      tag_35\n      jump\t// in\n        /* \"vs-contract.sol\":163:208  mapping(address => uint) public votesReceived */\n    tag_5:\n      tag_36\n      tag_37\n      calldatasize\n      0x04\n      tag_28\n      jump\t// in\n    tag_37:\n      mstore(0x20, 0x02)\n      0x00\n      swap1\n      dup2\n      mstore\n      0x40\n      swap1\n      keccak256\n      sload\n      dup2\n      jump\n    tag_36:\n      mload(0x40)\n        /* \"#utility.yul\":1224:1249   */\n      swap1\n      dup2\n      mstore\n        /* \"#utility.yul\":1212:1214   */\n      0x20\n        /* \"#utility.yul\":1197:1215   */\n      add\n        /* \"vs-contract.sol\":163:208  mapping(address => uint) public votesReceived */\n      tag_30\n        /* \"#utility.yul\":1078:1255   */\n      jump\n        /* \"vs-contract.sol\":1515:1862  function registerVoter(string memory _name, uint _age, address _voter) OnlyOwner public {... */\n    tag_6:\n      tag_41\n      tag_42\n      calldatasize\n      0x04\n      tag_43\n      jump\t// in\n    tag_42:\n      tag_44\n      jump\t// in\n    tag_41:\n      stop\n        /* \"vs-contract.sol\":1257:1509  function registerCandidates(string memory _name, uint _age, string memory _symbol, address _candidate) OnlyOwner public {... */\n    tag_7:\n      tag_41\n      tag_46\n      calldatasize\n      0x04\n      tag_47\n      jump\t// in\n    tag_46:\n      tag_48\n      jump\t// in\n        /* \"vs-contract.sol\":3035:3411  function result() public {... */\n    tag_8:\n      tag_41\n      tag_50\n      jump\t// in\n        /* \"vs-contract.sol\":2790:3029  function voteCounts(address _candidate) public view returns(uint){... */\n    tag_9:\n      tag_36\n      tag_52\n      calldatasize\n      0x04\n      tag_28\n      jump\t// in\n    tag_52:\n      tag_53\n      jump\t// in\n        /* \"vs-contract.sol\":1868:1998  function hasValidVoterPass(address _voter) view public returns(bool) {... */\n    tag_10:\n      tag_26\n      tag_56\n      calldatasize\n      0x04\n      tag_28\n      jump\t// in\n    tag_56:\n      sub(shl(0xa0, 0x01), 0x01)\n        /* \"vs-contract.sol\":1955:1972  voterInfo[_voter] */\n      and\n        /* \"vs-contract.sol\":1931:1935  bool */\n      0x00\n        /* \"vs-contract.sol\":1955:1972  voterInfo[_voter] */\n      swap1\n      dup2\n      mstore\n        /* \"vs-contract.sol\":1955:1964  voterInfo */\n      0x09\n        /* \"vs-contract.sol\":1955:1972  voterInfo[_voter] */\n      0x20\n      mstore\n      0x40\n      swap1\n      keccak256\n        /* \"vs-contract.sol\":1955:1990  voterInfo[_voter].hasValidVoterPass */\n      0x02\n      add\n      sload\n      0xff\n      and\n      swap1\n        /* \"vs-contract.sol\":1868:1998  function hasValidVoterPass(address _voter) view public returns(bool) {... */\n      jump\n        /* \"vs-contract.sol\":2004:2505  function vote(address _candidate) public {... */\n    tag_11:\n      tag_41\n      tag_60\n      calldatasize\n      0x04\n      tag_28\n      jump\t// in\n    tag_60:\n      tag_61\n      jump\t// in\n        /* \"vs-contract.sol\":244:267  uint public winnerVotes */\n    tag_12:\n      tag_36\n      sload(0x04)\n      dup2\n      jump\n        /* \"vs-contract.sol\":2511:2784  function validateCandidate(address _candidate) view public returns(bool) {... */\n    tag_13:\n      tag_26\n      tag_66\n      calldatasize\n      0x04\n      tag_28\n      jump\t// in\n    tag_66:\n      tag_67\n      jump\t// in\n        /* \"vs-contract.sol\":369:417  mapping(address => bool) public registeredVoters */\n    tag_14:\n      tag_26\n      tag_70\n      calldatasize\n      0x04\n      tag_28\n      jump\t// in\n    tag_70:\n      mstore(0x20, 0x06)\n      0x00\n      swap1\n      dup2\n      mstore\n      0x40\n      swap1\n      keccak256\n      sload\n      0xff\n      and\n      dup2\n      jump\n        /* \"vs-contract.sol\":1063:1251  function setStatus() OnlyOwner public {... */\n    tag_15:\n      tag_41\n      tag_74\n      jump\t// in\n        /* \"vs-contract.sol\":822:864  mapping(address => Voter) public voterInfo */\n    tag_16:\n      tag_75\n      tag_76\n      calldatasize\n      0x04\n      tag_28\n      jump\t// in\n    tag_76:\n      tag_77\n      jump\t// in\n    tag_75:\n      mload(0x40)\n      tag_30\n      swap6\n      swap5\n      swap4\n      swap3\n      swap2\n      swap1\n      tag_79\n      jump\t// in\n        /* \"vs-contract.sol\":90:118  address public contractOwner */\n    tag_17:\n      sload(0x00)\n      tag_80\n      swap1\n      sub(shl(0xa0, 0x01), 0x01)\n      and\n      dup2\n      jump\n    tag_80:\n      mload(0x40)\n      sub(shl(0xa0, 0x01), 0x01)\n        /* \"#utility.yul\":4449:4504   */\n      swap1\n      swap2\n      and\n        /* \"#utility.yul\":4431:4505   */\n      dup2\n      mstore\n        /* \"#utility.yul\":4419:4421   */\n      0x20\n        /* \"#utility.yul\":4404:4422   */\n      add\n        /* \"vs-contract.sol\":90:118  address public contractOwner */\n      tag_30\n        /* \"#utility.yul\":4285:4511   */\n      jump\n        /* \"vs-contract.sol\":125:156  address[] public candidatesList */\n    tag_18:\n      tag_80\n      tag_85\n      calldatasize\n      0x04\n      tag_86\n      jump\t// in\n    tag_85:\n      tag_87\n      jump\t// in\n        /* \"vs-contract.sol\":216:237  address public winner */\n    tag_19:\n      sload(0x03)\n      tag_80\n      swap1\n      sub(shl(0xa0, 0x01), 0x01)\n      and\n      dup2\n      jump\n        /* \"vs-contract.sol\":606:656  mapping(address => Candidate) public candidateInfo */\n    tag_20:\n      tag_92\n      tag_93\n      calldatasize\n      0x04\n      tag_28\n      jump\t// in\n    tag_93:\n      tag_94\n      jump\t// in\n    tag_92:\n      mload(0x40)\n      tag_30\n      swap5\n      swap4\n      swap3\n      swap2\n      swap1\n      tag_96\n      jump\t// in\n        /* \"vs-contract.sol\":1515:1862  function registerVoter(string memory _name, uint _age, address _voter) OnlyOwner public {... */\n    tag_44:\n        /* \"vs-contract.sol\":994:1007  contractOwner */\n      and(sub(shl(0xa0, 0x01), 0x01), sload(0x00))\n        /* \"vs-contract.sol\":980:990  msg.sender */\n      caller\n        /* \"vs-contract.sol\":980:1007  msg.sender == contractOwner */\n      eq\n        /* \"vs-contract.sol\":972:1037  require(msg.sender == contractOwner, \"You ain't the owner, dude\") */\n      tag_98\n      jumpi\n      mload(0x40)\n      shl(0xe5, 0x461bcd)\n      dup2\n      mstore\n        /* \"#utility.yul\":5484:5486   */\n      0x20\n        /* \"vs-contract.sol\":972:1037  require(msg.sender == contractOwner, \"You ain't the owner, dude\") */\n      0x04\n      dup3\n      add\n        /* \"#utility.yul\":5466:5487   */\n      mstore\n        /* \"#utility.yul\":5523:5525   */\n      0x19\n        /* \"#utility.yul\":5503:5521   */\n      0x24\n      dup3\n      add\n        /* \"#utility.yul\":5496:5526   */\n      mstore\n        /* \"#utility.yul\":5562:5589   */\n      0x596f752061696e277420746865206f776e65722c206475646500000000000000\n        /* \"#utility.yul\":5542:5560   */\n      0x44\n      dup3\n      add\n        /* \"#utility.yul\":5535:5590   */\n      mstore\n        /* \"#utility.yul\":5607:5625   */\n      0x64\n      add\n        /* \"vs-contract.sol\":972:1037  require(msg.sender == contractOwner, \"You ain't the owner, dude\") */\n    tag_99:\n      mload(0x40)\n      dup1\n      swap2\n      sub\n      swap1\n      revert\n    tag_98:\n      sub(shl(0xa0, 0x01), 0x01)\n        /* \"vs-contract.sol\":1623:1647  registeredVoters[_voter] */\n      dup2\n      and\n      0x00\n      swap1\n      dup2\n      mstore\n        /* \"vs-contract.sol\":1623:1639  registeredVoters */\n      0x06\n        /* \"vs-contract.sol\":1623:1647  registeredVoters[_voter] */\n      0x20\n      mstore\n      0x40\n      swap1\n      keccak256\n      sload\n      0xff\n      and\n        /* \"vs-contract.sol\":1622:1647  !registeredVoters[_voter] */\n      iszero\n        /* \"vs-contract.sol\":1614:1679  require(!registeredVoters[_voter], \"Voter is already registered\") */\n      tag_102\n      jumpi\n      mload(0x40)\n      shl(0xe5, 0x461bcd)\n      dup2\n      mstore\n        /* \"#utility.yul\":5838:5840   */\n      0x20\n        /* \"vs-contract.sol\":1614:1679  require(!registeredVoters[_voter], \"Voter is already registered\") */\n      0x04\n      dup3\n      add\n        /* \"#utility.yul\":5820:5841   */\n      mstore\n        /* \"#utility.yul\":5877:5879   */\n      0x1b\n        /* \"#utility.yul\":5857:5875   */\n      0x24\n      dup3\n      add\n        /* \"#utility.yul\":5850:5880   */\n      mstore\n        /* \"#utility.yul\":5916:5945   */\n      0x566f74657220697320616c726561647920726567697374657265640000000000\n        /* \"#utility.yul\":5896:5914   */\n      0x44\n      dup3\n      add\n        /* \"#utility.yul\":5889:5946   */\n      mstore\n        /* \"#utility.yul\":5963:5981   */\n      0x64\n      add\n        /* \"vs-contract.sol\":1614:1679  require(!registeredVoters[_voter], \"Voter is already registered\") */\n      tag_99\n        /* \"#utility.yul\":5636:5987   */\n      jump\n        /* \"vs-contract.sol\":1614:1679  require(!registeredVoters[_voter], \"Voter is already registered\") */\n    tag_102:\n      sub(shl(0xa0, 0x01), 0x01)\n        /* \"vs-contract.sol\":1753:1777  registeredVoters[_voter] */\n      dup2\n      and\n      0x00\n      dup2\n      dup2\n      mstore\n        /* \"vs-contract.sol\":1753:1769  registeredVoters */\n      0x06\n        /* \"vs-contract.sol\":1753:1777  registeredVoters[_voter] */\n      0x20\n      swap1\n      dup2\n      mstore\n      0x40\n      dup1\n      dup4\n      keccak256\n        /* \"vs-contract.sol\":1753:1784  registeredVoters[_voter] = true */\n      dup1\n      sload\n      not(0xff)\n      and\n        /* \"vs-contract.sol\":1780:1784  true */\n      0x01\n        /* \"vs-contract.sol\":1753:1784  registeredVoters[_voter] = true */\n      swap1\n      dup2\n      or\n      swap1\n      swap2\n      sstore\n        /* \"vs-contract.sol\":1815:1854  Voter(_name, _age, true, false, _voter) */\n      dup2\n      mload\n      0xa0\n      dup2\n      add\n      dup4\n      mstore\n      dup9\n      dup2\n      mstore\n      dup1\n      dup5\n      add\n      dup9\n      swap1\n      mstore\n      dup1\n      dup4\n      add\n      swap2\n      swap1\n      swap2\n      mstore\n      0x60\n      dup2\n      add\n      dup5\n      swap1\n      mstore\n      0x80\n      dup2\n      add\n      dup6\n      swap1\n      mstore\n        /* \"vs-contract.sol\":1795:1812  voterInfo[_voter] */\n      swap4\n      dup4\n      mstore\n        /* \"vs-contract.sol\":1795:1804  voterInfo */\n      0x09\n        /* \"vs-contract.sol\":1795:1812  voterInfo[_voter] */\n      swap1\n      swap2\n      mstore\n      swap1\n      keccak256\n        /* \"vs-contract.sol\":1795:1854  voterInfo[_voter] = Voter(_name, _age, true, false, _voter) */\n      dup2\n      mload\n        /* \"vs-contract.sol\":1795:1812  voterInfo[_voter] */\n      dup2\n      swap1\n        /* \"vs-contract.sol\":1795:1854  voterInfo[_voter] = Voter(_name, _age, true, false, _voter) */\n      tag_105\n      swap1\n        /* \"vs-contract.sol\":1795:1812  voterInfo[_voter] */\n      dup3\n        /* \"vs-contract.sol\":1795:1854  voterInfo[_voter] = Voter(_name, _age, true, false, _voter) */\n      tag_106\n      jump\t// in\n    tag_105:\n      pop\n      0x20\n      dup3\n      add\n      mload\n      0x01\n      dup3\n      add\n      sstore\n      0x40\n      dup3\n      add\n      mload\n      0x02\n      swap1\n      swap2\n      add\n      dup1\n      sload\n      0x60\n      dup5\n      add\n      mload\n      0x80\n      swap1\n      swap5\n      add\n      mload\n      sub(shl(0xa0, 0x01), 0x01)\n      and\n      0x010000\n      mul\n      0xffffffffffffffffffff0000000000000000000000000000000000000000ffff\n      swap5\n      iszero\n      iszero\n      0x0100\n      mul\n      not(0xff00)\n      swap5\n      iszero\n      iszero\n      swap5\n      swap1\n      swap5\n      and\n      not(0xffff)\n      swap1\n      swap3\n      and\n      swap2\n      swap1\n      swap2\n      or\n      swap3\n      swap1\n      swap3\n      or\n      swap3\n      swap1\n      swap3\n      and\n      or\n      swap1\n      sstore\n      pop\n      pop\n      pop\n        /* \"vs-contract.sol\":1515:1862  function registerVoter(string memory _name, uint _age, address _voter) OnlyOwner public {... */\n      jump\t// out\n        /* \"vs-contract.sol\":1257:1509  function registerCandidates(string memory _name, uint _age, string memory _symbol, address _candidate) OnlyOwner public {... */\n    tag_48:\n        /* \"vs-contract.sol\":994:1007  contractOwner */\n      and(sub(shl(0xa0, 0x01), 0x01), sload(0x00))\n        /* \"vs-contract.sol\":980:990  msg.sender */\n      caller\n        /* \"vs-contract.sol\":980:1007  msg.sender == contractOwner */\n      eq\n        /* \"vs-contract.sol\":972:1037  require(msg.sender == contractOwner, \"You ain't the owner, dude\") */\n      tag_108\n      jumpi\n      mload(0x40)\n      shl(0xe5, 0x461bcd)\n      dup2\n      mstore\n        /* \"#utility.yul\":5484:5486   */\n      0x20\n        /* \"vs-contract.sol\":972:1037  require(msg.sender == contractOwner, \"You ain't the owner, dude\") */\n      0x04\n      dup3\n      add\n        /* \"#utility.yul\":5466:5487   */\n      mstore\n        /* \"#utility.yul\":5523:5525   */\n      0x19\n        /* \"#utility.yul\":5503:5521   */\n      0x24\n      dup3\n      add\n        /* \"#utility.yul\":5496:5526   */\n      mstore\n        /* \"#utility.yul\":5562:5589   */\n      0x596f752061696e277420746865206f776e65722c206475646500000000000000\n        /* \"#utility.yul\":5542:5560   */\n      0x44\n      dup3\n      add\n        /* \"#utility.yul\":5535:5590   */\n      mstore\n        /* \"#utility.yul\":5607:5625   */\n      0x64\n      add\n        /* \"vs-contract.sol\":972:1037  require(msg.sender == contractOwner, \"You ain't the owner, dude\") */\n      tag_99\n        /* \"#utility.yul\":5282:5631   */\n      jump\n        /* \"vs-contract.sol\":972:1037  require(msg.sender == contractOwner, \"You ain't the owner, dude\") */\n    tag_108:\n        /* \"vs-contract.sol\":1388:1402  candidatesList */\n      0x01\n        /* \"vs-contract.sol\":1388:1419  candidatesList.push(_candidate) */\n      dup1\n      sload\n      dup1\n      dup3\n      add\n      swap1\n      swap2\n      sstore\n      0xb10e2d527612073b26eecdfd717e6a320cf44b4afac2b0732d9fcbe2b7fa0cf6\n      add\n      dup1\n      sload\n      not(0xffffffffffffffffffffffffffffffffffffffff)\n      and\n      sub(shl(0xa0, 0x01), 0x01)\n      dup4\n      and\n      swap1\n      dup2\n      or\n      swap1\n      swap2\n      sstore\n        /* \"vs-contract.sol\":1458:1501  Candidate(_name, _age, _symbol, _candidate) */\n      0x40\n      dup1\n      mload\n      0x80\n      dup2\n      add\n      dup3\n      mstore\n      dup7\n      dup2\n      mstore\n        /* \"vs-contract.sol\":1388:1419  candidatesList.push(_candidate) */\n      0x20\n        /* \"vs-contract.sol\":1458:1501  Candidate(_name, _age, _symbol, _candidate) */\n      dup1\n      dup3\n      add\n      dup8\n      swap1\n      mstore\n      dup2\n      dup4\n      add\n      dup7\n      swap1\n      mstore\n      0x60\n      dup3\n      add\n      dup5\n      swap1\n      mstore\n      0x00\n        /* \"vs-contract.sol\":1430:1455  candidateInfo[_candidate] */\n      swap4\n      dup5\n      mstore\n        /* \"vs-contract.sol\":1430:1443  candidateInfo */\n      0x08\n        /* \"vs-contract.sol\":1430:1455  candidateInfo[_candidate] */\n      swap1\n      mstore\n      swap2\n      keccak256\n        /* \"vs-contract.sol\":1430:1501  candidateInfo[_candidate] = Candidate(_name, _age, _symbol, _candidate) */\n      dup2\n      mload\n        /* \"vs-contract.sol\":1430:1455  candidateInfo[_candidate] */\n      dup2\n      swap1\n        /* \"vs-contract.sol\":1430:1501  candidateInfo[_candidate] = Candidate(_name, _age, _symbol, _candidate) */\n      tag_112\n      swap1\n        /* \"vs-contract.sol\":1430:1455  candidateInfo[_candidate] */\n      dup3\n        /* \"vs-contract.sol\":1430:1501  candidateInfo[_candidate] = Candidate(_name, _age, _symbol, _candidate) */\n      tag_106\n      jump\t// in\n    tag_112:\n      pop\n      0x20\n      dup3\n      add\n      mload\n      0x01\n      dup3\n      add\n      sstore\n      0x40\n      dup3\n      add\n      mload\n      0x02\n      dup3\n      add\n      swap1\n      tag_113\n      swap1\n      dup3\n      tag_106\n      jump\t// in\n    tag_113:\n      pop\n      0x60\n      swap2\n      swap1\n      swap2\n      add\n      mload\n      0x03\n      swap1\n      swap2\n      add\n      dup1\n      sload\n      not(0xffffffffffffffffffffffffffffffffffffffff)\n      and\n      sub(shl(0xa0, 0x01), 0x01)\n      swap1\n      swap3\n      and\n      swap2\n      swap1\n      swap2\n      or\n      swap1\n      sstore\n      pop\n      pop\n      pop\n      pop\n        /* \"vs-contract.sol\":1257:1509  function registerCandidates(string memory _name, uint _age, string memory _symbol, address _candidate) OnlyOwner public {... */\n      jump\t// out\n        /* \"vs-contract.sol\":3035:3411  function result() public {... */\n    tag_50:\n        /* \"vs-contract.sol\":3089:3111  VotingStatus.Completed */\n      0x02\n        /* \"vs-contract.sol\":3079:3085  status */\n      and(0xff, sload(0x05))\n        /* \"vs-contract.sol\":3079:3111  status == VotingStatus.Completed */\n      0x02\n      dup2\n      gt\n      iszero\n      tag_119\n      jumpi\n      tag_119\n      tag_117\n      jump\t// in\n    tag_119:\n      eq\n        /* \"vs-contract.sol\":3071:3143  require(status == VotingStatus.Completed, \"Voting isn't completed yet!\") */\n      tag_120\n      jumpi\n      mload(0x40)\n      shl(0xe5, 0x461bcd)\n      dup2\n      mstore\n        /* \"#utility.yul\":8783:8785   */\n      0x20\n        /* \"vs-contract.sol\":3071:3143  require(status == VotingStatus.Completed, \"Voting isn't completed yet!\") */\n      0x04\n      dup3\n      add\n        /* \"#utility.yul\":8765:8786   */\n      mstore\n        /* \"#utility.yul\":8822:8824   */\n      0x1b\n        /* \"#utility.yul\":8802:8820   */\n      0x24\n      dup3\n      add\n        /* \"#utility.yul\":8795:8825   */\n      mstore\n        /* \"#utility.yul\":8861:8890   */\n      0x566f74696e672069736e277420636f6d706c6574656420796574210000000000\n        /* \"#utility.yul\":8841:8859   */\n      0x44\n      dup3\n      add\n        /* \"#utility.yul\":8834:8891   */\n      mstore\n        /* \"#utility.yul\":8908:8926   */\n      0x64\n      add\n        /* \"vs-contract.sol\":3071:3143  require(status == VotingStatus.Completed, \"Voting isn't completed yet!\") */\n      tag_99\n        /* \"#utility.yul\":8581:8932   */\n      jump\n        /* \"vs-contract.sol\":3071:3143  require(status == VotingStatus.Completed, \"Voting isn't completed yet!\") */\n    tag_120:\n        /* \"vs-contract.sol\":3158:3164  uint i */\n      0x00\n        /* \"vs-contract.sol\":3154:3404  for(uint i= 0; i < candidatesList.length;i++) {... */\n    tag_123:\n        /* \"vs-contract.sol\":3173:3187  candidatesList */\n      0x01\n        /* \"vs-contract.sol\":3173:3194  candidatesList.length */\n      sload\n        /* \"vs-contract.sol\":3169:3194  i < candidatesList.length */\n      dup2\n      lt\n        /* \"vs-contract.sol\":3154:3404  for(uint i= 0; i < candidatesList.length;i++) {... */\n      iszero\n      tag_124\n      jumpi\n        /* \"vs-contract.sol\":3254:3265  winnerVotes */\n      sload(0x04)\n        /* \"vs-contract.sol\":3219:3232  votesReceived */\n      0x02\n        /* \"vs-contract.sol\":3219:3251  votesReceived[candidatesList[i]] */\n      0x00\n        /* \"vs-contract.sol\":3233:3247  candidatesList */\n      0x01\n        /* \"vs-contract.sol\":3248:3249  i */\n      dup5\n        /* \"vs-contract.sol\":3233:3250  candidatesList[i] */\n      dup2\n      sload\n      dup2\n      lt\n      tag_127\n      jumpi\n      tag_127\n      tag_128\n      jump\t// in\n    tag_127:\n      0x00\n      swap2\n      dup3\n      mstore\n      0x20\n      dup1\n      dup4\n      keccak256\n      swap1\n      swap2\n      add\n      sload\n      sub(shl(0xa0, 0x01), 0x01)\n      and\n        /* \"vs-contract.sol\":3219:3251  votesReceived[candidatesList[i]] */\n      dup4\n      mstore\n      dup3\n      add\n      swap3\n      swap1\n      swap3\n      mstore\n      0x40\n      add\n      swap1\n      keccak256\n      sload\n        /* \"vs-contract.sol\":3219:3265  votesReceived[candidatesList[i]] > winnerVotes */\n      gt\n        /* \"vs-contract.sol\":3215:3393  if (votesReceived[candidatesList[i]] > winnerVotes) {... */\n      iszero\n      tag_130\n      jumpi\n        /* \"vs-contract.sol\":3300:3313  votesReceived */\n      0x02\n        /* \"vs-contract.sol\":3300:3332  votesReceived[candidatesList[i]] */\n      0x00\n        /* \"vs-contract.sol\":3314:3328  candidatesList */\n      0x01\n        /* \"vs-contract.sol\":3329:3330  i */\n      dup4\n        /* \"vs-contract.sol\":3314:3331  candidatesList[i] */\n      dup2\n      sload\n      dup2\n      lt\n      tag_132\n      jumpi\n      tag_132\n      tag_128\n      jump\t// in\n    tag_132:\n      0x00\n      swap2\n      dup3\n      mstore\n      0x20\n      dup1\n      dup4\n      keccak256\n      swap1\n      swap2\n      add\n      sload\n      sub(shl(0xa0, 0x01), 0x01)\n      and\n        /* \"vs-contract.sol\":3300:3332  votesReceived[candidatesList[i]] */\n      dup4\n      mstore\n      dup3\n      add\n      swap3\n      swap1\n      swap3\n      mstore\n      0x40\n      add\n      swap1\n      keccak256\n      sload\n        /* \"vs-contract.sol\":3286:3297  winnerVotes */\n      0x04\n        /* \"vs-contract.sol\":3286:3332  winnerVotes = votesReceived[candidatesList[i]] */\n      sstore\n        /* \"vs-contract.sol\":3314:3331  candidatesList[i] */\n      0x01\n        /* \"vs-contract.sol\":3360:3377  candidatesList[i] */\n      dup1\n      sload\n        /* \"vs-contract.sol\":3375:3376  i */\n      dup3\n      swap1\n        /* \"vs-contract.sol\":3360:3377  candidatesList[i] */\n      dup2\n      lt\n      tag_135\n      jumpi\n      tag_135\n      tag_128\n      jump\t// in\n    tag_135:\n      0x00\n      swap2\n      dup3\n      mstore\n      0x20\n      swap1\n      swap2\n      keccak256\n      add\n      sload\n        /* \"vs-contract.sol\":3351:3357  winner */\n      0x03\n        /* \"vs-contract.sol\":3351:3377  winner = candidatesList[i] */\n      dup1\n      sload\n      not(0xffffffffffffffffffffffffffffffffffffffff)\n      and\n      sub(shl(0xa0, 0x01), 0x01)\n        /* \"vs-contract.sol\":3360:3377  candidatesList[i] */\n      swap1\n      swap3\n      and\n        /* \"vs-contract.sol\":3351:3377  winner = candidatesList[i] */\n      swap2\n      swap1\n      swap2\n      or\n      swap1\n      sstore\n        /* \"vs-contract.sol\":3215:3393  if (votesReceived[candidatesList[i]] > winnerVotes) {... */\n    tag_130:\n        /* \"vs-contract.sol\":3195:3198  i++ */\n      dup1\n      tag_137\n      dup2\n      tag_138\n      jump\t// in\n    tag_137:\n      swap2\n      pop\n      pop\n        /* \"vs-contract.sol\":3154:3404  for(uint i= 0; i < candidatesList.length;i++) {... */\n      jump(tag_123)\n    tag_124:\n      pop\n        /* \"vs-contract.sol\":3035:3411  function result() public {... */\n      jump\t// out\n        /* \"vs-contract.sol\":2790:3029  function voteCounts(address _candidate) public view returns(uint){... */\n    tag_53:\n        /* \"vs-contract.sol\":2850:2854  uint */\n      0x00\n        /* \"vs-contract.sol\":2874:2903  validateCandidate(_candidate) */\n      tag_140\n        /* \"vs-contract.sol\":2892:2902  _candidate */\n      dup3\n        /* \"vs-contract.sol\":2874:2891  validateCandidate */\n      tag_67\n        /* \"vs-contract.sol\":2874:2903  validateCandidate(_candidate) */\n      jump\t// in\n    tag_140:\n        /* \"vs-contract.sol\":2866:2929  require(validateCandidate(_candidate), \"Not a valid Candidate\") */\n      tag_141\n      jumpi\n      mload(0x40)\n      shl(0xe5, 0x461bcd)\n      dup2\n      mstore\n        /* \"#utility.yul\":9543:9545   */\n      0x20\n        /* \"vs-contract.sol\":2866:2929  require(validateCandidate(_candidate), \"Not a valid Candidate\") */\n      0x04\n      dup3\n      add\n        /* \"#utility.yul\":9525:9546   */\n      mstore\n        /* \"#utility.yul\":9582:9584   */\n      0x15\n        /* \"#utility.yul\":9562:9580   */\n      0x24\n      dup3\n      add\n        /* \"#utility.yul\":9555:9585   */\n      mstore\n        /* \"#utility.yul\":9621:9644   */\n      0x4e6f7420612076616c69642043616e6469646174650000000000000000000000\n        /* \"#utility.yul\":9601:9619   */\n      0x44\n      dup3\n      add\n        /* \"#utility.yul\":9594:9645   */\n      mstore\n        /* \"#utility.yul\":9662:9680   */\n      0x64\n      add\n        /* \"vs-contract.sol\":2866:2929  require(validateCandidate(_candidate), \"Not a valid Candidate\") */\n      tag_99\n        /* \"#utility.yul\":9341:9686   */\n      jump\n        /* \"vs-contract.sol\":2866:2929  require(validateCandidate(_candidate), \"Not a valid Candidate\") */\n    tag_141:\n        /* \"vs-contract.sol\":2957:2977  VotingStatus.Running */\n      0x01\n        /* \"vs-contract.sol\":2947:2953  status */\n      and(0xff, sload(0x05))\n        /* \"vs-contract.sol\":2947:2977  status == VotingStatus.Running */\n      0x02\n      dup2\n      gt\n      iszero\n      tag_147\n      jumpi\n      tag_147\n      tag_117\n      jump\t// in\n    tag_147:\n      eq\n        /* \"vs-contract.sol\":2940:2978  assert(status == VotingStatus.Running) */\n      tag_149\n      jumpi\n      tag_149\n      tag_150\n      jump\t// in\n    tag_149:\n      pop\n      sub(shl(0xa0, 0x01), 0x01)\n        /* \"vs-contract.sol\":2996:3021  votesReceived[_candidate] */\n      and\n      0x00\n      swap1\n      dup2\n      mstore\n        /* \"vs-contract.sol\":2996:3009  votesReceived */\n      0x02\n        /* \"vs-contract.sol\":2996:3021  votesReceived[_candidate] */\n      0x20\n      mstore\n      0x40\n      swap1\n      keccak256\n      sload\n      swap1\n        /* \"vs-contract.sol\":2790:3029  function voteCounts(address _candidate) public view returns(uint){... */\n      jump\t// out\n        /* \"vs-contract.sol\":2004:2505  function vote(address _candidate) public {... */\n    tag_61:\n        /* \"vs-contract.sol\":2064:2093  validateCandidate(_candidate) */\n      tag_153\n        /* \"vs-contract.sol\":2082:2092  _candidate */\n      dup2\n        /* \"vs-contract.sol\":2064:2081  validateCandidate */\n      tag_67\n        /* \"vs-contract.sol\":2064:2093  validateCandidate(_candidate) */\n      jump\t// in\n    tag_153:\n        /* \"vs-contract.sol\":2056:2119  require(validateCandidate(_candidate), \"Not a valid Candidate\") */\n      tag_154\n      jumpi\n      mload(0x40)\n      shl(0xe5, 0x461bcd)\n      dup2\n      mstore\n        /* \"#utility.yul\":9543:9545   */\n      0x20\n        /* \"vs-contract.sol\":2056:2119  require(validateCandidate(_candidate), \"Not a valid Candidate\") */\n      0x04\n      dup3\n      add\n        /* \"#utility.yul\":9525:9546   */\n      mstore\n        /* \"#utility.yul\":9582:9584   */\n      0x15\n        /* \"#utility.yul\":9562:9580   */\n      0x24\n      dup3\n      add\n        /* \"#utility.yul\":9555:9585   */\n      mstore\n        /* \"#utility.yul\":9621:9644   */\n      0x4e6f7420612076616c69642043616e6469646174650000000000000000000000\n        /* \"#utility.yul\":9601:9619   */\n      0x44\n      dup3\n      add\n        /* \"#utility.yul\":9594:9645   */\n      mstore\n        /* \"#utility.yul\":9662:9680   */\n      0x64\n      add\n        /* \"vs-contract.sol\":2056:2119  require(validateCandidate(_candidate), \"Not a valid Candidate\") */\n      tag_99\n        /* \"#utility.yul\":9341:9686   */\n      jump\n        /* \"vs-contract.sol\":2056:2119  require(validateCandidate(_candidate), \"Not a valid Candidate\") */\n    tag_154:\n        /* \"vs-contract.sol\":2148:2168  VotingStatus.Running */\n      0x01\n        /* \"vs-contract.sol\":2138:2144  status */\n      and(0xff, sload(0x05))\n        /* \"vs-contract.sol\":2138:2168  status == VotingStatus.Running */\n      0x02\n      dup2\n      gt\n      iszero\n      tag_159\n      jumpi\n      tag_159\n      tag_117\n      jump\t// in\n    tag_159:\n      eq\n        /* \"vs-contract.sol\":2130:2194  require(status == VotingStatus.Running, \"Voting is not started\") */\n      tag_160\n      jumpi\n      mload(0x40)\n      shl(0xe5, 0x461bcd)\n      dup2\n      mstore\n        /* \"#utility.yul\":10025:10027   */\n      0x20\n        /* \"vs-contract.sol\":2130:2194  require(status == VotingStatus.Running, \"Voting is not started\") */\n      0x04\n      dup3\n      add\n        /* \"#utility.yul\":10007:10028   */\n      mstore\n        /* \"#utility.yul\":10064:10066   */\n      0x15\n        /* \"#utility.yul\":10044:10062   */\n      0x24\n      dup3\n      add\n        /* \"#utility.yul\":10037:10067   */\n      mstore\n        /* \"#utility.yul\":10103:10126   */\n      0x566f74696e67206973206e6f7420737461727465640000000000000000000000\n        /* \"#utility.yul\":10083:10101   */\n      0x44\n      dup3\n      add\n        /* \"#utility.yul\":10076:10127   */\n      mstore\n        /* \"#utility.yul\":10144:10162   */\n      0x64\n      add\n        /* \"vs-contract.sol\":2130:2194  require(status == VotingStatus.Running, \"Voting is not started\") */\n      tag_99\n        /* \"#utility.yul\":9823:10168   */\n      jump\n        /* \"vs-contract.sol\":2130:2194  require(status == VotingStatus.Running, \"Voting is not started\") */\n    tag_160:\n        /* \"vs-contract.sol\":2230:2240  msg.sender */\n      caller\n        /* \"vs-contract.sol\":2213:2241  registeredVoters[msg.sender] */\n      0x00\n      swap1\n      dup2\n      mstore\n        /* \"vs-contract.sol\":2213:2229  registeredVoters */\n      0x06\n        /* \"vs-contract.sol\":2213:2241  registeredVoters[msg.sender] */\n      0x20\n      mstore\n      0x40\n      swap1\n      keccak256\n      sload\n      0xff\n      and\n        /* \"vs-contract.sol\":2205:2276  require(registeredVoters[msg.sender], \"You are not a registered voter\") */\n      tag_163\n      jumpi\n      mload(0x40)\n      shl(0xe5, 0x461bcd)\n      dup2\n      mstore\n        /* \"#utility.yul\":10375:10377   */\n      0x20\n        /* \"vs-contract.sol\":2205:2276  require(registeredVoters[msg.sender], \"You are not a registered voter\") */\n      0x04\n      dup3\n      add\n        /* \"#utility.yul\":10357:10378   */\n      mstore\n        /* \"#utility.yul\":10414:10416   */\n      0x1e\n        /* \"#utility.yul\":10394:10412   */\n      0x24\n      dup3\n      add\n        /* \"#utility.yul\":10387:10417   */\n      mstore\n        /* \"#utility.yul\":10453:10485   */\n      0x596f7520617265206e6f742061207265676973746572656420766f7465720000\n        /* \"#utility.yul\":10433:10451   */\n      0x44\n      dup3\n      add\n        /* \"#utility.yul\":10426:10486   */\n      mstore\n        /* \"#utility.yul\":10503:10521   */\n      0x64\n      add\n        /* \"vs-contract.sol\":2205:2276  require(registeredVoters[msg.sender], \"You are not a registered voter\") */\n      tag_99\n        /* \"#utility.yul\":10173:10527   */\n      jump\n        /* \"vs-contract.sol\":2205:2276  require(registeredVoters[msg.sender], \"You are not a registered voter\") */\n    tag_163:\n        /* \"vs-contract.sol\":2305:2315  msg.sender */\n      caller\n        /* \"vs-contract.sol\":2296:2316  hasVoted[msg.sender] */\n      0x00\n      swap1\n      dup2\n      mstore\n        /* \"vs-contract.sol\":2296:2304  hasVoted */\n      0x07\n        /* \"vs-contract.sol\":2296:2316  hasVoted[msg.sender] */\n      0x20\n      mstore\n      0x40\n      swap1\n      keccak256\n      sload\n      0xff\n      and\n        /* \"vs-contract.sol\":2295:2316  !hasVoted[msg.sender] */\n      iszero\n        /* \"vs-contract.sol\":2287:2343  require(!hasVoted[msg.sender], \"You have already voted\") */\n      tag_166\n      jumpi\n      mload(0x40)\n      shl(0xe5, 0x461bcd)\n      dup2\n      mstore\n        /* \"#utility.yul\":10734:10736   */\n      0x20\n        /* \"vs-contract.sol\":2287:2343  require(!hasVoted[msg.sender], \"You have already voted\") */\n      0x04\n      dup3\n      add\n        /* \"#utility.yul\":10716:10737   */\n      mstore\n        /* \"#utility.yul\":10773:10775   */\n      0x16\n        /* \"#utility.yul\":10753:10771   */\n      0x24\n      dup3\n      add\n        /* \"#utility.yul\":10746:10776   */\n      mstore\n        /* \"#utility.yul\":10812:10836   */\n      0x596f75206861766520616c726561647920766f74656400000000000000000000\n        /* \"#utility.yul\":10792:10810   */\n      0x44\n      dup3\n      add\n        /* \"#utility.yul\":10785:10837   */\n      mstore\n        /* \"#utility.yul\":10854:10872   */\n      0x64\n      add\n        /* \"vs-contract.sol\":2287:2343  require(!hasVoted[msg.sender], \"You have already voted\") */\n      tag_99\n        /* \"#utility.yul\":10532:10878   */\n      jump\n        /* \"vs-contract.sol\":2287:2343  require(!hasVoted[msg.sender], \"You have already voted\") */\n    tag_166:\n      sub(shl(0xa0, 0x01), 0x01)\n        /* \"vs-contract.sol\":2382:2407  votesReceived[_candidate] */\n      dup2\n      and\n      0x00\n      swap1\n      dup2\n      mstore\n        /* \"vs-contract.sol\":2382:2395  votesReceived */\n      0x02\n        /* \"vs-contract.sol\":2382:2407  votesReceived[_candidate] */\n      0x20\n      mstore\n      0x40\n      swap1\n      keccak256\n      sload\n        /* \"vs-contract.sol\":2382:2411  votesReceived[_candidate] + 1 */\n      tag_169\n      swap1\n        /* \"vs-contract.sol\":2410:2411  1 */\n      0x01\n        /* \"vs-contract.sol\":2382:2411  votesReceived[_candidate] + 1 */\n      tag_170\n      jump\t// in\n    tag_169:\n      sub(shl(0xa0, 0x01), 0x01)\n        /* \"vs-contract.sol\":2354:2379  votesReceived[_candidate] */\n      swap1\n      swap2\n      and\n      0x00\n      swap1\n      dup2\n      mstore\n        /* \"vs-contract.sol\":2354:2367  votesReceived */\n      0x02\n        /* \"vs-contract.sol\":2354:2379  votesReceived[_candidate] */\n      0x20\n      dup2\n      dup2\n      mstore\n      0x40\n      dup1\n      dup5\n      keccak256\n        /* \"vs-contract.sol\":2354:2411  votesReceived[_candidate] = votesReceived[_candidate] + 1 */\n      swap5\n      swap1\n      swap5\n      sstore\n        /* \"vs-contract.sol\":2431:2441  msg.sender */\n      caller\n        /* \"vs-contract.sol\":2422:2442  hasVoted[msg.sender] */\n      dup4\n      mstore\n        /* \"vs-contract.sol\":2422:2430  hasVoted */\n      0x07\n        /* \"vs-contract.sol\":2422:2442  hasVoted[msg.sender] */\n      dup2\n      mstore\n      dup4\n      dup4\n      keccak256\n        /* \"vs-contract.sol\":2422:2449  hasVoted[msg.sender] = true */\n      dup1\n      sload\n      not(0xff)\n      and\n        /* \"vs-contract.sol\":2445:2449  true */\n      0x01\n        /* \"vs-contract.sol\":2422:2449  hasVoted[msg.sender] = true */\n      or\n      swap1\n      sstore\n        /* \"vs-contract.sol\":2460:2469  voterInfo */\n      0x09\n        /* \"vs-contract.sol\":2460:2481  voterInfo[msg.sender] */\n      swap1\n      mstore\n      swap2\n      swap1\n      keccak256\n        /* \"vs-contract.sol\":2460:2490  voterInfo[msg.sender].hasVoted */\n      add\n        /* \"vs-contract.sol\":2460:2497  voterInfo[msg.sender].hasVoted = true */\n      dup1\n      sload\n      not(0xff00)\n      and\n        /* \"vs-contract.sol\":2422:2449  hasVoted[msg.sender] = true */\n      0x0100\n        /* \"vs-contract.sol\":2460:2497  voterInfo[msg.sender].hasVoted = true */\n      or\n      swap1\n      sstore\n        /* \"vs-contract.sol\":2004:2505  function vote(address _candidate) public {... */\n      jump\t// out\n        /* \"vs-contract.sol\":2511:2784  function validateCandidate(address _candidate) view public returns(bool) {... */\n    tag_67:\n        /* \"vs-contract.sol\":2578:2582  bool */\n      0x00\n      dup1\n        /* \"vs-contract.sol\":2595:2754  for (uint i = 0; i < candidatesList.length; i++ ) {... */\n    tag_172:\n        /* \"vs-contract.sol\":2616:2630  candidatesList */\n      0x01\n        /* \"vs-contract.sol\":2616:2637  candidatesList.length */\n      sload\n        /* \"vs-contract.sol\":2612:2637  i < candidatesList.length */\n      dup2\n      lt\n        /* \"vs-contract.sol\":2595:2754  for (uint i = 0; i < candidatesList.length; i++ ) {... */\n      iszero\n      tag_173\n      jumpi\n        /* \"vs-contract.sol\":2685:2695  _candidate */\n      dup3\n      sub(shl(0xa0, 0x01), 0x01)\n        /* \"vs-contract.sol\":2664:2695  candidatesList[i] == _candidate */\n      and\n        /* \"vs-contract.sol\":2664:2678  candidatesList */\n      0x01\n        /* \"vs-contract.sol\":2679:2680  i */\n      dup3\n        /* \"vs-contract.sol\":2664:2681  candidatesList[i] */\n      dup2\n      sload\n      dup2\n      lt\n      tag_176\n      jumpi\n      tag_176\n      tag_128\n      jump\t// in\n    tag_176:\n      0x00\n      swap2\n      dup3\n      mstore\n      0x20\n      swap1\n      swap2\n      keccak256\n      add\n      sload\n      sub(shl(0xa0, 0x01), 0x01)\n      and\n        /* \"vs-contract.sol\":2664:2695  candidatesList[i] == _candidate */\n      sub\n        /* \"vs-contract.sol\":2660:2743  if (candidatesList[i] == _candidate) {... */\n      tag_178\n      jumpi\n      pop\n        /* \"vs-contract.sol\":2723:2727  true */\n      0x01\n      swap3\n        /* \"vs-contract.sol\":2511:2784  function validateCandidate(address _candidate) view public returns(bool) {... */\n      swap2\n      pop\n      pop\n      jump\t// out\n        /* \"vs-contract.sol\":2660:2743  if (candidatesList[i] == _candidate) {... */\n    tag_178:\n        /* \"vs-contract.sol\":2639:2642  i++ */\n      dup1\n      tag_179\n      dup2\n      tag_138\n      jump\t// in\n    tag_179:\n      swap2\n      pop\n      pop\n        /* \"vs-contract.sol\":2595:2754  for (uint i = 0; i < candidatesList.length; i++ ) {... */\n      jump(tag_172)\n    tag_173:\n      pop\n        /* \"vs-contract.sol\":2771:2776  false */\n      0x00\n      swap3\n        /* \"vs-contract.sol\":2511:2784  function validateCandidate(address _candidate) view public returns(bool) {... */\n      swap2\n      pop\n      pop\n      jump\t// out\n        /* \"vs-contract.sol\":1063:1251  function setStatus() OnlyOwner public {... */\n    tag_74:\n        /* \"vs-contract.sol\":994:1007  contractOwner */\n      and(sub(shl(0xa0, 0x01), 0x01), sload(0x00))\n        /* \"vs-contract.sol\":980:990  msg.sender */\n      caller\n        /* \"vs-contract.sol\":980:1007  msg.sender == contractOwner */\n      eq\n        /* \"vs-contract.sol\":972:1037  require(msg.sender == contractOwner, \"You ain't the owner, dude\") */\n      tag_181\n      jumpi\n      mload(0x40)\n      shl(0xe5, 0x461bcd)\n      dup2\n      mstore\n        /* \"#utility.yul\":5484:5486   */\n      0x20\n        /* \"vs-contract.sol\":972:1037  require(msg.sender == contractOwner, \"You ain't the owner, dude\") */\n      0x04\n      dup3\n      add\n        /* \"#utility.yul\":5466:5487   */\n      mstore\n        /* \"#utility.yul\":5523:5525   */\n      0x19\n        /* \"#utility.yul\":5503:5521   */\n      0x24\n      dup3\n      add\n        /* \"#utility.yul\":5496:5526   */\n      mstore\n        /* \"#utility.yul\":5562:5589   */\n      0x596f752061696e277420746865206f776e65722c206475646500000000000000\n        /* \"#utility.yul\":5542:5560   */\n      0x44\n      dup3\n      add\n        /* \"#utility.yul\":5535:5590   */\n      mstore\n        /* \"#utility.yul\":5607:5625   */\n      0x64\n      add\n        /* \"vs-contract.sol\":972:1037  require(msg.sender == contractOwner, \"You ain't the owner, dude\") */\n      tag_99\n        /* \"#utility.yul\":5282:5631   */\n      jump\n        /* \"vs-contract.sol\":972:1037  require(msg.sender == contractOwner, \"You ain't the owner, dude\") */\n    tag_181:\n        /* \"vs-contract.sol\":1122:1142  VotingStatus.Running */\n      0x01\n        /* \"vs-contract.sol\":1112:1118  status */\n      and(0xff, sload(0x05))\n        /* \"vs-contract.sol\":1112:1142  status == VotingStatus.Running */\n      0x02\n      dup2\n      gt\n      iszero\n      tag_187\n      jumpi\n      tag_187\n      tag_117\n      jump\t// in\n    tag_187:\n      sub\n        /* \"vs-contract.sol\":1108:1248  if (status == VotingStatus.Running) {... */\n      tag_188\n      jumpi\n        /* \"vs-contract.sol\":1155:1161  status */\n      0x05\n        /* \"vs-contract.sol\":1155:1186  status = VotingStatus.Completed */\n      dup1\n      sload\n      not(0xff)\n      and\n        /* \"vs-contract.sol\":1164:1186  VotingStatus.Completed */\n      0x02\n        /* \"vs-contract.sol\":1155:1186  status = VotingStatus.Completed */\n      or\n      swap1\n      sstore\n        /* \"vs-contract.sol\":1063:1251  function setStatus() OnlyOwner public {... */\n      jump\t// out\n        /* \"vs-contract.sol\":1108:1248  if (status == VotingStatus.Running) {... */\n    tag_188:\n        /* \"vs-contract.sol\":1211:1217  status */\n      0x05\n        /* \"vs-contract.sol\":1211:1240  status = VotingStatus.Running */\n      dup1\n      sload\n      not(0xff)\n      and\n        /* \"vs-contract.sol\":1220:1240  VotingStatus.Running */\n      0x01\n        /* \"vs-contract.sol\":1211:1240  status = VotingStatus.Running */\n      or\n      swap1\n      sstore\n        /* \"vs-contract.sol\":1063:1251  function setStatus() OnlyOwner public {... */\n      jump\t// out\n        /* \"vs-contract.sol\":822:864  mapping(address => Voter) public voterInfo */\n    tag_77:\n      mstore(0x20, 0x09)\n      0x00\n      swap1\n      dup2\n      mstore\n      0x40\n      swap1\n      keccak256\n      dup1\n      sload\n      dup2\n      swap1\n      tag_194\n      swap1\n      tag_195\n      jump\t// in\n    tag_194:\n      dup1\n      0x1f\n      add\n      0x20\n      dup1\n      swap2\n      div\n      mul\n      0x20\n      add\n      mload(0x40)\n      swap1\n      dup2\n      add\n      0x40\n      mstore\n      dup1\n      swap3\n      swap2\n      swap1\n      dup2\n      dup2\n      mstore\n      0x20\n      add\n      dup3\n      dup1\n      sload\n      tag_196\n      swap1\n      tag_195\n      jump\t// in\n    tag_196:\n      dup1\n      iszero\n      tag_197\n      jumpi\n      dup1\n      0x1f\n      lt\n      tag_198\n      jumpi\n      0x0100\n      dup1\n      dup4\n      sload\n      div\n      mul\n      dup4\n      mstore\n      swap2\n      0x20\n      add\n      swap2\n      jump(tag_197)\n    tag_198:\n      dup3\n      add\n      swap2\n      swap1\n      0x00\n      mstore\n      keccak256(0x00, 0x20)\n      swap1\n    tag_199:\n      dup2\n      sload\n      dup2\n      mstore\n      swap1\n      0x01\n      add\n      swap1\n      0x20\n      add\n      dup1\n      dup4\n      gt\n      tag_199\n      jumpi\n      dup3\n      swap1\n      sub\n      0x1f\n      and\n      dup3\n      add\n      swap2\n    tag_197:\n      pop\n      pop\n      pop\n      pop\n      0x01\n      dup4\n      add\n      sload\n      0x02\n      swap1\n      swap4\n      add\n      sload\n      swap2\n      swap3\n      swap2\n      0xff\n      dup1\n      dup3\n      and\n      swap3\n      pop\n      0x0100\n      dup3\n      div\n      and\n      swap1\n      0x010000\n      swap1\n      div\n      sub(shl(0xa0, 0x01), 0x01)\n      and\n      dup6\n      jump\t// out\n        /* \"vs-contract.sol\":125:156  address[] public candidatesList */\n    tag_87:\n      0x01\n      dup2\n      dup2\n      sload\n      dup2\n      lt\n      tag_200\n      jumpi\n      0x00\n      dup1\n      revert\n    tag_200:\n      0x00\n      swap2\n      dup3\n      mstore\n      0x20\n      swap1\n      swap2\n      keccak256\n      add\n      sload\n      sub(shl(0xa0, 0x01), 0x01)\n      and\n      swap1\n      pop\n      dup2\n      jump\t// out\n        /* \"vs-contract.sol\":606:656  mapping(address => Candidate) public candidateInfo */\n    tag_94:\n      mstore(0x20, 0x08)\n      0x00\n      swap1\n      dup2\n      mstore\n      0x40\n      swap1\n      keccak256\n      dup1\n      sload\n      dup2\n      swap1\n      tag_202\n      swap1\n      tag_195\n      jump\t// in\n    tag_202:\n      dup1\n      0x1f\n      add\n      0x20\n      dup1\n      swap2\n      div\n      mul\n      0x20\n      add\n      mload(0x40)\n      swap1\n      dup2\n      add\n      0x40\n      mstore\n      dup1\n      swap3\n      swap2\n      swap1\n      dup2\n      dup2\n      mstore\n      0x20\n      add\n      dup3\n      dup1\n      sload\n      tag_203\n      swap1\n      tag_195\n      jump\t// in\n    tag_203:\n      dup1\n      iszero\n      tag_204\n      jumpi\n      dup1\n      0x1f\n      lt\n      tag_205\n      jumpi\n      0x0100\n      dup1\n      dup4\n      sload\n      div\n      mul\n      dup4\n      mstore\n      swap2\n      0x20\n      add\n      swap2\n      jump(tag_204)\n    tag_205:\n      dup3\n      add\n      swap2\n      swap1\n      0x00\n      mstore\n      keccak256(0x00, 0x20)\n      swap1\n    tag_206:\n      dup2\n      sload\n      dup2\n      mstore\n      swap1\n      0x01\n      add\n      swap1\n      0x20\n      add\n      dup1\n      dup4\n      gt\n      tag_206\n      jumpi\n      dup3\n      swap1\n      sub\n      0x1f\n      and\n      dup3\n      add\n      swap2\n    tag_204:\n      pop\n      pop\n      pop\n      pop\n      pop\n      swap1\n      dup1\n      0x01\n      add\n      sload\n      swap1\n      dup1\n      0x02\n      add\n      dup1\n      sload\n      tag_207\n      swap1\n      tag_195\n      jump\t// in\n    tag_207:\n      dup1\n      0x1f\n      add\n      0x20\n      dup1\n      swap2\n      div\n      mul\n      0x20\n      add\n      mload(0x40)\n      swap1\n      dup2\n      add\n      0x40\n      mstore\n      dup1\n      swap3\n      swap2\n      swap1\n      dup2\n      dup2\n      mstore\n      0x20\n      add\n      dup3\n      dup1\n      sload\n      tag_208\n      swap1\n      tag_195\n      jump\t// in\n    tag_208:\n      dup1\n      iszero\n      tag_209\n      jumpi\n      dup1\n      0x1f\n      lt\n      tag_210\n      jumpi\n      0x0100\n      dup1\n      dup4\n      sload\n      div\n      mul\n      dup4\n      mstore\n      swap2\n      0x20\n      add\n      swap2\n      jump(tag_209)\n    tag_210:\n      dup3\n      add\n      swap2\n      swap1\n      0x00\n      mstore\n      keccak256(0x00, 0x20)\n      swap1\n    tag_211:\n      dup2\n      sload\n      dup2\n      mstore\n      swap1\n      0x01\n      add\n      swap1\n      0x20\n      add\n      dup1\n      dup4\n      gt\n      tag_211\n      jumpi\n      dup3\n      swap1\n      sub\n      0x1f\n      and\n      dup3\n      add\n      swap2\n    tag_209:\n      pop\n      pop\n      pop\n      0x03\n      swap1\n      swap4\n      add\n      sload\n      swap2\n      swap3\n      pop\n      pop\n      sub(shl(0xa0, 0x01), 0x01)\n      and\n      dup5\n      jump\t// out\n        /* \"#utility.yul\":14:210   */\n    tag_212:\n        /* \"#utility.yul\":82:102   */\n      dup1\n      calldataload\n      sub(shl(0xa0, 0x01), 0x01)\n        /* \"#utility.yul\":131:185   */\n      dup2\n      and\n        /* \"#utility.yul\":121:186   */\n      dup2\n      eq\n        /* \"#utility.yul\":111:204   */\n      tag_222\n      jumpi\n        /* \"#utility.yul\":200:201   */\n      0x00\n        /* \"#utility.yul\":197:198   */\n      dup1\n        /* \"#utility.yul\":190:202   */\n      revert\n        /* \"#utility.yul\":111:204   */\n    tag_222:\n        /* \"#utility.yul\":14:210   */\n      swap2\n      swap1\n      pop\n      jump\t// out\n        /* \"#utility.yul\":215:401   */\n    tag_28:\n        /* \"#utility.yul\":274:280   */\n      0x00\n        /* \"#utility.yul\":327:329   */\n      0x20\n        /* \"#utility.yul\":315:324   */\n      dup3\n        /* \"#utility.yul\":306:313   */\n      dup5\n        /* \"#utility.yul\":302:325   */\n      sub\n        /* \"#utility.yul\":298:330   */\n      slt\n        /* \"#utility.yul\":295:347   */\n      iszero\n      tag_224\n      jumpi\n        /* \"#utility.yul\":343:344   */\n      0x00\n        /* \"#utility.yul\":340:341   */\n      dup1\n        /* \"#utility.yul\":333:345   */\n      revert\n        /* \"#utility.yul\":295:347   */\n    tag_224:\n        /* \"#utility.yul\":366:395   */\n      tag_225\n        /* \"#utility.yul\":385:394   */\n      dup3\n        /* \"#utility.yul\":366:395   */\n      tag_212\n      jump\t// in\n    tag_225:\n        /* \"#utility.yul\":356:395   */\n      swap4\n        /* \"#utility.yul\":215:401   */\n      swap3\n      pop\n      pop\n      pop\n      jump\t// out\n        /* \"#utility.yul\":598:725   */\n    tag_117:\n        /* \"#utility.yul\":659:669   */\n      0x4e487b71\n        /* \"#utility.yul\":654:657   */\n      0xe0\n        /* \"#utility.yul\":650:670   */\n      shl\n        /* \"#utility.yul\":647:648   */\n      0x00\n        /* \"#utility.yul\":640:671   */\n      mstore\n        /* \"#utility.yul\":690:694   */\n      0x21\n        /* \"#utility.yul\":687:688   */\n      0x04\n        /* \"#utility.yul\":680:695   */\n      mstore\n        /* \"#utility.yul\":714:718   */\n      0x24\n        /* \"#utility.yul\":711:712   */\n      0x00\n        /* \"#utility.yul\":704:719   */\n      revert\n        /* \"#utility.yul\":730:1073   */\n    tag_35:\n        /* \"#utility.yul\":877:879   */\n      0x20\n        /* \"#utility.yul\":862:880   */\n      dup2\n      add\n        /* \"#utility.yul\":910:911   */\n      0x03\n        /* \"#utility.yul\":899:912   */\n      dup4\n      lt\n        /* \"#utility.yul\":889:1033   */\n      tag_229\n      jumpi\n        /* \"#utility.yul\":955:965   */\n      0x4e487b71\n        /* \"#utility.yul\":950:953   */\n      0xe0\n        /* \"#utility.yul\":946:966   */\n      shl\n        /* \"#utility.yul\":943:944   */\n      0x00\n        /* \"#utility.yul\":936:967   */\n      mstore\n        /* \"#utility.yul\":990:994   */\n      0x21\n        /* \"#utility.yul\":987:988   */\n      0x04\n        /* \"#utility.yul\":980:995   */\n      mstore\n        /* \"#utility.yul\":1018:1022   */\n      0x24\n        /* \"#utility.yul\":1015:1016   */\n      0x00\n        /* \"#utility.yul\":1008:1023   */\n      revert\n        /* \"#utility.yul\":889:1033   */\n    tag_229:\n        /* \"#utility.yul\":1042:1067   */\n      swap2\n      swap1\n      mstore\n        /* \"#utility.yul\":730:1073   */\n      swap1\n      jump\t// out\n        /* \"#utility.yul\":1260:1387   */\n    tag_213:\n        /* \"#utility.yul\":1321:1331   */\n      0x4e487b71\n        /* \"#utility.yul\":1316:1319   */\n      0xe0\n        /* \"#utility.yul\":1312:1332   */\n      shl\n        /* \"#utility.yul\":1309:1310   */\n      0x00\n        /* \"#utility.yul\":1302:1333   */\n      mstore\n        /* \"#utility.yul\":1352:1356   */\n      0x41\n        /* \"#utility.yul\":1349:1350   */\n      0x04\n        /* \"#utility.yul\":1342:1357   */\n      mstore\n        /* \"#utility.yul\":1376:1380   */\n      0x24\n        /* \"#utility.yul\":1373:1374   */\n      0x00\n        /* \"#utility.yul\":1366:1381   */\n      revert\n        /* \"#utility.yul\":1392:2111   */\n    tag_214:\n        /* \"#utility.yul\":1435:1440   */\n      0x00\n        /* \"#utility.yul\":1488:1491   */\n      dup3\n        /* \"#utility.yul\":1481:1485   */\n      0x1f\n        /* \"#utility.yul\":1473:1479   */\n      dup4\n        /* \"#utility.yul\":1469:1486   */\n      add\n        /* \"#utility.yul\":1465:1492   */\n      slt\n        /* \"#utility.yul\":1455:1510   */\n      tag_233\n      jumpi\n        /* \"#utility.yul\":1506:1507   */\n      0x00\n        /* \"#utility.yul\":1503:1504   */\n      dup1\n        /* \"#utility.yul\":1496:1508   */\n      revert\n        /* \"#utility.yul\":1455:1510   */\n    tag_233:\n        /* \"#utility.yul\":1542:1548   */\n      dup2\n        /* \"#utility.yul\":1529:1549   */\n      calldataload\n        /* \"#utility.yul\":1568:1586   */\n      0xffffffffffffffff\n        /* \"#utility.yul\":1605:1607   */\n      dup1\n        /* \"#utility.yul\":1601:1603   */\n      dup3\n        /* \"#utility.yul\":1598:1608   */\n      gt\n        /* \"#utility.yul\":1595:1631   */\n      iszero\n      tag_235\n      jumpi\n        /* \"#utility.yul\":1611:1629   */\n      tag_235\n      tag_213\n      jump\t// in\n    tag_235:\n        /* \"#utility.yul\":1686:1688   */\n      0x40\n        /* \"#utility.yul\":1680:1689   */\n      mload\n        /* \"#utility.yul\":1654:1656   */\n      0x1f\n        /* \"#utility.yul\":1740:1753   */\n      dup4\n      add\n      not(0x1f)\n        /* \"#utility.yul\":1736:1758   */\n      swap1\n      dup2\n      and\n        /* \"#utility.yul\":1760:1762   */\n      0x3f\n        /* \"#utility.yul\":1732:1763   */\n      add\n        /* \"#utility.yul\":1728:1768   */\n      and\n        /* \"#utility.yul\":1716:1769   */\n      dup2\n      add\n      swap1\n        /* \"#utility.yul\":1784:1802   */\n      dup3\n      dup3\n      gt\n        /* \"#utility.yul\":1804:1826   */\n      dup2\n      dup4\n      lt\n        /* \"#utility.yul\":1781:1827   */\n      or\n        /* \"#utility.yul\":1778:1850   */\n      iszero\n      tag_237\n      jumpi\n        /* \"#utility.yul\":1830:1848   */\n      tag_237\n      tag_213\n      jump\t// in\n    tag_237:\n        /* \"#utility.yul\":1870:1880   */\n      dup2\n        /* \"#utility.yul\":1866:1868   */\n      0x40\n        /* \"#utility.yul\":1859:1881   */\n      mstore\n        /* \"#utility.yul\":1905:1907   */\n      dup4\n        /* \"#utility.yul\":1897:1903   */\n      dup2\n        /* \"#utility.yul\":1890:1908   */\n      mstore\n        /* \"#utility.yul\":1951:1954   */\n      dup7\n        /* \"#utility.yul\":1944:1948   */\n      0x20\n        /* \"#utility.yul\":1939:1941   */\n      dup6\n        /* \"#utility.yul\":1931:1937   */\n      dup9\n        /* \"#utility.yul\":1927:1942   */\n      add\n        /* \"#utility.yul\":1923:1949   */\n      add\n        /* \"#utility.yul\":1920:1955   */\n      gt\n        /* \"#utility.yul\":1917:1972   */\n      iszero\n      tag_238\n      jumpi\n        /* \"#utility.yul\":1968:1969   */\n      0x00\n        /* \"#utility.yul\":1965:1966   */\n      dup1\n        /* \"#utility.yul\":1958:1970   */\n      revert\n        /* \"#utility.yul\":1917:1972   */\n    tag_238:\n        /* \"#utility.yul\":2032:2034   */\n      dup4\n        /* \"#utility.yul\":2025:2029   */\n      0x20\n        /* \"#utility.yul\":2017:2023   */\n      dup8\n        /* \"#utility.yul\":2013:2030   */\n      add\n        /* \"#utility.yul\":2006:2010   */\n      0x20\n        /* \"#utility.yul\":1998:2004   */\n      dup4\n        /* \"#utility.yul\":1994:2011   */\n      add\n        /* \"#utility.yul\":1981:2035   */\n      calldatacopy\n        /* \"#utility.yul\":2079:2080   */\n      0x00\n        /* \"#utility.yul\":2072:2076   */\n      0x20\n        /* \"#utility.yul\":2067:2069   */\n      dup6\n        /* \"#utility.yul\":2059:2065   */\n      dup4\n        /* \"#utility.yul\":2055:2070   */\n      add\n        /* \"#utility.yul\":2051:2077   */\n      add\n        /* \"#utility.yul\":2044:2081   */\n      mstore\n        /* \"#utility.yul\":2099:2105   */\n      dup1\n        /* \"#utility.yul\":2090:2105   */\n      swap5\n      pop\n      pop\n      pop\n      pop\n      pop\n        /* \"#utility.yul\":1392:2111   */\n      swap3\n      swap2\n      pop\n      pop\n      jump\t// out\n        /* \"#utility.yul\":2116:2580   */\n    tag_43:\n        /* \"#utility.yul\":2203:2209   */\n      0x00\n        /* \"#utility.yul\":2211:2217   */\n      dup1\n        /* \"#utility.yul\":2219:2225   */\n      0x00\n        /* \"#utility.yul\":2272:2274   */\n      0x60\n        /* \"#utility.yul\":2260:2269   */\n      dup5\n        /* \"#utility.yul\":2251:2258   */\n      dup7\n        /* \"#utility.yul\":2247:2270   */\n      sub\n        /* \"#utility.yul\":2243:2275   */\n      slt\n        /* \"#utility.yul\":2240:2292   */\n      iszero\n      tag_240\n      jumpi\n        /* \"#utility.yul\":2288:2289   */\n      0x00\n        /* \"#utility.yul\":2285:2286   */\n      dup1\n        /* \"#utility.yul\":2278:2290   */\n      revert\n        /* \"#utility.yul\":2240:2292   */\n    tag_240:\n        /* \"#utility.yul\":2328:2337   */\n      dup4\n        /* \"#utility.yul\":2315:2338   */\n      calldataload\n        /* \"#utility.yul\":2361:2379   */\n      0xffffffffffffffff\n        /* \"#utility.yul\":2353:2359   */\n      dup2\n        /* \"#utility.yul\":2350:2380   */\n      gt\n        /* \"#utility.yul\":2347:2397   */\n      iszero\n      tag_241\n      jumpi\n        /* \"#utility.yul\":2393:2394   */\n      0x00\n        /* \"#utility.yul\":2390:2391   */\n      dup1\n        /* \"#utility.yul\":2383:2395   */\n      revert\n        /* \"#utility.yul\":2347:2397   */\n    tag_241:\n        /* \"#utility.yul\":2416:2466   */\n      tag_242\n        /* \"#utility.yul\":2458:2465   */\n      dup7\n        /* \"#utility.yul\":2449:2455   */\n      dup3\n        /* \"#utility.yul\":2438:2447   */\n      dup8\n        /* \"#utility.yul\":2434:2456   */\n      add\n        /* \"#utility.yul\":2416:2466   */\n      tag_214\n      jump\t// in\n    tag_242:\n        /* \"#utility.yul\":2406:2466   */\n      swap4\n      pop\n      pop\n        /* \"#utility.yul\":2513:2515   */\n      0x20\n        /* \"#utility.yul\":2502:2511   */\n      dup5\n        /* \"#utility.yul\":2498:2516   */\n      add\n        /* \"#utility.yul\":2485:2517   */\n      calldataload\n        /* \"#utility.yul\":2475:2517   */\n      swap2\n      pop\n        /* \"#utility.yul\":2536:2574   */\n      tag_243\n        /* \"#utility.yul\":2570:2572   */\n      0x40\n        /* \"#utility.yul\":2559:2568   */\n      dup6\n        /* \"#utility.yul\":2555:2573   */\n      add\n        /* \"#utility.yul\":2536:2574   */\n      tag_212\n      jump\t// in\n    tag_243:\n        /* \"#utility.yul\":2526:2574   */\n      swap1\n      pop\n        /* \"#utility.yul\":2116:2580   */\n      swap3\n      pop\n      swap3\n      pop\n      swap3\n      jump\t// out\n        /* \"#utility.yul\":2585:3271   */\n    tag_47:\n        /* \"#utility.yul\":2691:2697   */\n      0x00\n        /* \"#utility.yul\":2699:2705   */\n      dup1\n        /* \"#utility.yul\":2707:2713   */\n      0x00\n        /* \"#utility.yul\":2715:2721   */\n      dup1\n        /* \"#utility.yul\":2768:2771   */\n      0x80\n        /* \"#utility.yul\":2756:2765   */\n      dup6\n        /* \"#utility.yul\":2747:2754   */\n      dup8\n        /* \"#utility.yul\":2743:2766   */\n      sub\n        /* \"#utility.yul\":2739:2772   */\n      slt\n        /* \"#utility.yul\":2736:2789   */\n      iszero\n      tag_245\n      jumpi\n        /* \"#utility.yul\":2785:2786   */\n      0x00\n        /* \"#utility.yul\":2782:2783   */\n      dup1\n        /* \"#utility.yul\":2775:2787   */\n      revert\n        /* \"#utility.yul\":2736:2789   */\n    tag_245:\n        /* \"#utility.yul\":2825:2834   */\n      dup5\n        /* \"#utility.yul\":2812:2835   */\n      calldataload\n        /* \"#utility.yul\":2854:2872   */\n      0xffffffffffffffff\n        /* \"#utility.yul\":2895:2897   */\n      dup1\n        /* \"#utility.yul\":2887:2893   */\n      dup3\n        /* \"#utility.yul\":2884:2898   */\n      gt\n        /* \"#utility.yul\":2881:2915   */\n      iszero\n      tag_246\n      jumpi\n        /* \"#utility.yul\":2911:2912   */\n      0x00\n        /* \"#utility.yul\":2908:2909   */\n      dup1\n        /* \"#utility.yul\":2901:2913   */\n      revert\n        /* \"#utility.yul\":2881:2915   */\n    tag_246:\n        /* \"#utility.yul\":2934:2984   */\n      tag_247\n        /* \"#utility.yul\":2976:2983   */\n      dup9\n        /* \"#utility.yul\":2967:2973   */\n      dup4\n        /* \"#utility.yul\":2956:2965   */\n      dup10\n        /* \"#utility.yul\":2952:2974   */\n      add\n        /* \"#utility.yul\":2934:2984   */\n      tag_214\n      jump\t// in\n    tag_247:\n        /* \"#utility.yul\":2924:2984   */\n      swap6\n      pop\n        /* \"#utility.yul\":3031:3033   */\n      0x20\n        /* \"#utility.yul\":3020:3029   */\n      dup8\n        /* \"#utility.yul\":3016:3034   */\n      add\n        /* \"#utility.yul\":3003:3035   */\n      calldataload\n        /* \"#utility.yul\":2993:3035   */\n      swap5\n      pop\n        /* \"#utility.yul\":3088:3090   */\n      0x40\n        /* \"#utility.yul\":3077:3086   */\n      dup8\n        /* \"#utility.yul\":3073:3091   */\n      add\n        /* \"#utility.yul\":3060:3092   */\n      calldataload\n        /* \"#utility.yul\":3044:3092   */\n      swap2\n      pop\n        /* \"#utility.yul\":3117:3119   */\n      dup1\n        /* \"#utility.yul\":3107:3115   */\n      dup3\n        /* \"#utility.yul\":3104:3120   */\n      gt\n        /* \"#utility.yul\":3101:3137   */\n      iszero\n      tag_248\n      jumpi\n        /* \"#utility.yul\":3133:3134   */\n      0x00\n        /* \"#utility.yul\":3130:3131   */\n      dup1\n        /* \"#utility.yul\":3123:3135   */\n      revert\n        /* \"#utility.yul\":3101:3137   */\n    tag_248:\n      pop\n        /* \"#utility.yul\":3156:3208   */\n      tag_249\n        /* \"#utility.yul\":3200:3207   */\n      dup8\n        /* \"#utility.yul\":3189:3197   */\n      dup3\n        /* \"#utility.yul\":3178:3187   */\n      dup9\n        /* \"#utility.yul\":3174:3198   */\n      add\n        /* \"#utility.yul\":3156:3208   */\n      tag_214\n      jump\t// in\n    tag_249:\n        /* \"#utility.yul\":3146:3208   */\n      swap3\n      pop\n      pop\n        /* \"#utility.yul\":3227:3265   */\n      tag_250\n        /* \"#utility.yul\":3261:3263   */\n      0x60\n        /* \"#utility.yul\":3250:3259   */\n      dup7\n        /* \"#utility.yul\":3246:3264   */\n      add\n        /* \"#utility.yul\":3227:3265   */\n      tag_212\n      jump\t// in\n    tag_250:\n        /* \"#utility.yul\":3217:3265   */\n      swap1\n      pop\n        /* \"#utility.yul\":2585:3271   */\n      swap3\n      swap6\n      swap2\n      swap5\n      pop\n      swap3\n      pop\n      jump\t// out\n        /* \"#utility.yul\":3276:3699   */\n    tag_215:\n        /* \"#utility.yul\":3318:3321   */\n      0x00\n        /* \"#utility.yul\":3356:3361   */\n      dup2\n        /* \"#utility.yul\":3350:3362   */\n      mload\n        /* \"#utility.yul\":3383:3389   */\n      dup1\n        /* \"#utility.yul\":3378:3381   */\n      dup5\n        /* \"#utility.yul\":3371:3390   */\n      mstore\n        /* \"#utility.yul\":3408:3409   */\n      0x00\n        /* \"#utility.yul\":3418:3580   */\n    tag_252:\n        /* \"#utility.yul\":3432:3438   */\n      dup2\n        /* \"#utility.yul\":3429:3430   */\n      dup2\n        /* \"#utility.yul\":3426:3439   */\n      lt\n        /* \"#utility.yul\":3418:3580   */\n      iszero\n      tag_254\n      jumpi\n        /* \"#utility.yul\":3494:3498   */\n      0x20\n        /* \"#utility.yul\":3550:3563   */\n      dup2\n      dup6\n      add\n        /* \"#utility.yul\":3546:3568   */\n      dup2\n      add\n        /* \"#utility.yul\":3540:3569   */\n      mload\n        /* \"#utility.yul\":3522:3533   */\n      dup7\n      dup4\n      add\n        /* \"#utility.yul\":3518:3538   */\n      dup3\n      add\n        /* \"#utility.yul\":3511:3570   */\n      mstore\n        /* \"#utility.yul\":3447:3459   */\n      add\n        /* \"#utility.yul\":3418:3580   */\n      jump(tag_252)\n    tag_254:\n        /* \"#utility.yul\":3422:3425   */\n      pop\n        /* \"#utility.yul\":3625:3626   */\n      0x00\n        /* \"#utility.yul\":3618:3622   */\n      0x20\n        /* \"#utility.yul\":3609:3615   */\n      dup3\n        /* \"#utility.yul\":3604:3607   */\n      dup7\n        /* \"#utility.yul\":3600:3616   */\n      add\n        /* \"#utility.yul\":3596:3623   */\n      add\n        /* \"#utility.yul\":3589:3627   */\n      mstore\n        /* \"#utility.yul\":3688:3692   */\n      0x20\n        /* \"#utility.yul\":3681:3683   */\n      0x1f\n        /* \"#utility.yul\":3677:3684   */\n      not\n        /* \"#utility.yul\":3672:3674   */\n      0x1f\n        /* \"#utility.yul\":3664:3670   */\n      dup4\n        /* \"#utility.yul\":3660:3675   */\n      add\n        /* \"#utility.yul\":3656:3685   */\n      and\n        /* \"#utility.yul\":3651:3654   */\n      dup6\n        /* \"#utility.yul\":3647:3686   */\n      add\n        /* \"#utility.yul\":3643:3693   */\n      add\n        /* \"#utility.yul\":3636:3693   */\n      swap2\n      pop\n      pop\n        /* \"#utility.yul\":3276:3699   */\n      swap3\n      swap2\n      pop\n      pop\n      jump\t// out\n        /* \"#utility.yul\":3704:4280   */\n    tag_79:\n        /* \"#utility.yul\":3953:3956   */\n      0xa0\n        /* \"#utility.yul\":3942:3951   */\n      dup2\n        /* \"#utility.yul\":3935:3957   */\n      mstore\n        /* \"#utility.yul\":3916:3920   */\n      0x00\n        /* \"#utility.yul\":3974:4020   */\n      tag_256\n        /* \"#utility.yul\":4015:4018   */\n      0xa0\n        /* \"#utility.yul\":4004:4013   */\n      dup4\n        /* \"#utility.yul\":4000:4019   */\n      add\n        /* \"#utility.yul\":3992:3998   */\n      dup9\n        /* \"#utility.yul\":3974:4020   */\n      tag_215\n      jump\t// in\n    tag_256:\n        /* \"#utility.yul\":4051:4053   */\n      0x20\n        /* \"#utility.yul\":4036:4054   */\n      dup4\n      add\n        /* \"#utility.yul\":4029:4063   */\n      swap7\n      swap1\n      swap7\n      mstore\n      pop\n        /* \"#utility.yul\":4106:4120   */\n      swap3\n      iszero\n        /* \"#utility.yul\":4099:4121   */\n      iszero\n        /* \"#utility.yul\":4094:4096   */\n      0x40\n        /* \"#utility.yul\":4079:4097   */\n      dup5\n      add\n        /* \"#utility.yul\":4072:4122   */\n      mstore\n        /* \"#utility.yul\":4165:4179   */\n      swap1\n      iszero\n        /* \"#utility.yul\":4158:4180   */\n      iszero\n        /* \"#utility.yul\":4153:4155   */\n      0x60\n        /* \"#utility.yul\":4138:4156   */\n      dup4\n      add\n        /* \"#utility.yul\":4131:4181   */\n      mstore\n      sub(shl(0xa0, 0x01), 0x01)\n        /* \"#utility.yul\":4218:4273   */\n      and\n        /* \"#utility.yul\":4212:4215   */\n      0x80\n        /* \"#utility.yul\":4197:4216   */\n      swap1\n      swap2\n      add\n        /* \"#utility.yul\":4190:4274   */\n      mstore\n        /* \"#utility.yul\":3966:4020   */\n      swap2\n        /* \"#utility.yul\":3704:4280   */\n      swap1\n      pop\n      jump\t// out\n        /* \"#utility.yul\":4516:4696   */\n    tag_86:\n        /* \"#utility.yul\":4575:4581   */\n      0x00\n        /* \"#utility.yul\":4628:4630   */\n      0x20\n        /* \"#utility.yul\":4616:4625   */\n      dup3\n        /* \"#utility.yul\":4607:4614   */\n      dup5\n        /* \"#utility.yul\":4603:4626   */\n      sub\n        /* \"#utility.yul\":4599:4631   */\n      slt\n        /* \"#utility.yul\":4596:4648   */\n      iszero\n      tag_259\n      jumpi\n        /* \"#utility.yul\":4644:4645   */\n      0x00\n        /* \"#utility.yul\":4641:4642   */\n      dup1\n        /* \"#utility.yul\":4634:4646   */\n      revert\n        /* \"#utility.yul\":4596:4648   */\n    tag_259:\n      pop\n        /* \"#utility.yul\":4667:4690   */\n      calldataload\n      swap2\n        /* \"#utility.yul\":4516:4696   */\n      swap1\n      pop\n      jump\t// out\n        /* \"#utility.yul\":4701:5277   */\n    tag_96:\n        /* \"#utility.yul\":4954:4957   */\n      0x80\n        /* \"#utility.yul\":4943:4952   */\n      dup2\n        /* \"#utility.yul\":4936:4958   */\n      mstore\n        /* \"#utility.yul\":4917:4921   */\n      0x00\n        /* \"#utility.yul\":4981:5027   */\n      tag_261\n        /* \"#utility.yul\":5022:5025   */\n      0x80\n        /* \"#utility.yul\":5011:5020   */\n      dup4\n        /* \"#utility.yul\":5007:5026   */\n      add\n        /* \"#utility.yul\":4999:5005   */\n      dup8\n        /* \"#utility.yul\":4981:5027   */\n      tag_215\n      jump\t// in\n    tag_261:\n        /* \"#utility.yul\":5063:5069   */\n      dup6\n        /* \"#utility.yul\":5058:5060   */\n      0x20\n        /* \"#utility.yul\":5047:5056   */\n      dup5\n        /* \"#utility.yul\":5043:5061   */\n      add\n        /* \"#utility.yul\":5036:5070   */\n      mstore\n        /* \"#utility.yul\":5118:5127   */\n      dup3\n        /* \"#utility.yul\":5110:5116   */\n      dup2\n        /* \"#utility.yul\":5106:5128   */\n      sub\n        /* \"#utility.yul\":5101:5103   */\n      0x40\n        /* \"#utility.yul\":5090:5099   */\n      dup5\n        /* \"#utility.yul\":5086:5104   */\n      add\n        /* \"#utility.yul\":5079:5129   */\n      mstore\n        /* \"#utility.yul\":5146:5179   */\n      tag_262\n        /* \"#utility.yul\":5172:5178   */\n      dup2\n        /* \"#utility.yul\":5164:5170   */\n      dup7\n        /* \"#utility.yul\":5146:5179   */\n      tag_215\n      jump\t// in\n    tag_262:\n        /* \"#utility.yul\":5138:5179   */\n      swap2\n      pop\n      pop\n      sub(shl(0xa0, 0x01), 0x01)\n        /* \"#utility.yul\":5219:5225   */\n      dup4\n        /* \"#utility.yul\":5215:5270   */\n      and\n        /* \"#utility.yul\":5210:5212   */\n      0x60\n        /* \"#utility.yul\":5199:5208   */\n      dup4\n        /* \"#utility.yul\":5195:5213   */\n      add\n        /* \"#utility.yul\":5188:5271   */\n      mstore\n        /* \"#utility.yul\":4701:5277   */\n      swap6\n      swap5\n      pop\n      pop\n      pop\n      pop\n      pop\n      jump\t// out\n        /* \"#utility.yul\":5992:6372   */\n    tag_195:\n        /* \"#utility.yul\":6071:6072   */\n      0x01\n        /* \"#utility.yul\":6067:6079   */\n      dup2\n      dup2\n      shr\n      swap1\n        /* \"#utility.yul\":6114:6126   */\n      dup3\n      and\n      dup1\n        /* \"#utility.yul\":6135:6196   */\n      tag_266\n      jumpi\n        /* \"#utility.yul\":6189:6193   */\n      0x7f\n        /* \"#utility.yul\":6181:6187   */\n      dup3\n        /* \"#utility.yul\":6177:6194   */\n      and\n        /* \"#utility.yul\":6167:6194   */\n      swap2\n      pop\n        /* \"#utility.yul\":6135:6196   */\n    tag_266:\n        /* \"#utility.yul\":6242:6244   */\n      0x20\n        /* \"#utility.yul\":6234:6240   */\n      dup3\n        /* \"#utility.yul\":6231:6245   */\n      lt\n        /* \"#utility.yul\":6211:6229   */\n      dup2\n        /* \"#utility.yul\":6208:6246   */\n      sub\n        /* \"#utility.yul\":6205:6366   */\n      tag_267\n      jumpi\n        /* \"#utility.yul\":6288:6298   */\n      0x4e487b71\n        /* \"#utility.yul\":6283:6286   */\n      0xe0\n        /* \"#utility.yul\":6279:6299   */\n      shl\n        /* \"#utility.yul\":6276:6277   */\n      0x00\n        /* \"#utility.yul\":6269:6300   */\n      mstore\n        /* \"#utility.yul\":6323:6327   */\n      0x22\n        /* \"#utility.yul\":6320:6321   */\n      0x04\n        /* \"#utility.yul\":6313:6328   */\n      mstore\n        /* \"#utility.yul\":6351:6355   */\n      0x24\n        /* \"#utility.yul\":6348:6349   */\n      0x00\n        /* \"#utility.yul\":6341:6356   */\n      revert\n        /* \"#utility.yul\":6205:6366   */\n    tag_267:\n      pop\n        /* \"#utility.yul\":5992:6372   */\n      swap2\n      swap1\n      pop\n      jump\t// out\n        /* \"#utility.yul\":6503:7048   */\n    tag_217:\n        /* \"#utility.yul\":6605:6607   */\n      0x1f\n        /* \"#utility.yul\":6600:6603   */\n      dup3\n        /* \"#utility.yul\":6597:6608   */\n      gt\n        /* \"#utility.yul\":6594:7042   */\n      iszero\n      tag_270\n      jumpi\n        /* \"#utility.yul\":6641:6642   */\n      0x00\n        /* \"#utility.yul\":6666:6671   */\n      dup2\n        /* \"#utility.yul\":6662:6664   */\n      dup2\n        /* \"#utility.yul\":6655:6672   */\n      mstore\n        /* \"#utility.yul\":6711:6715   */\n      0x20\n        /* \"#utility.yul\":6707:6709   */\n      dup2\n        /* \"#utility.yul\":6697:6716   */\n      keccak256\n        /* \"#utility.yul\":6781:6783   */\n      0x1f\n        /* \"#utility.yul\":6769:6779   */\n      dup6\n        /* \"#utility.yul\":6765:6784   */\n      add\n        /* \"#utility.yul\":6762:6763   */\n      0x05\n        /* \"#utility.yul\":6758:6785   */\n      shr\n        /* \"#utility.yul\":6752:6756   */\n      dup2\n        /* \"#utility.yul\":6748:6786   */\n      add\n        /* \"#utility.yul\":6817:6821   */\n      0x20\n        /* \"#utility.yul\":6805:6815   */\n      dup7\n        /* \"#utility.yul\":6802:6822   */\n      lt\n        /* \"#utility.yul\":6799:6846   */\n      iszero\n      tag_271\n      jumpi\n      pop\n        /* \"#utility.yul\":6840:6844   */\n      dup1\n        /* \"#utility.yul\":6799:6846   */\n    tag_271:\n        /* \"#utility.yul\":6895:6897   */\n      0x1f\n        /* \"#utility.yul\":6890:6893   */\n      dup6\n        /* \"#utility.yul\":6886:6898   */\n      add\n        /* \"#utility.yul\":6883:6884   */\n      0x05\n        /* \"#utility.yul\":6879:6899   */\n      shr\n        /* \"#utility.yul\":6873:6877   */\n      dup3\n        /* \"#utility.yul\":6869:6900   */\n      add\n        /* \"#utility.yul\":6859:6900   */\n      swap2\n      pop\n        /* \"#utility.yul\":6950:7032   */\n    tag_272:\n        /* \"#utility.yul\":6968:6970   */\n      dup2\n        /* \"#utility.yul\":6961:6966   */\n      dup2\n        /* \"#utility.yul\":6958:6971   */\n      lt\n        /* \"#utility.yul\":6950:7032   */\n      iszero\n      tag_274\n      jumpi\n        /* \"#utility.yul\":7013:7030   */\n      dup3\n      dup2\n      sstore\n        /* \"#utility.yul\":6994:6995   */\n      0x01\n        /* \"#utility.yul\":6983:6996   */\n      add\n        /* \"#utility.yul\":6950:7032   */\n      jump(tag_272)\n    tag_274:\n        /* \"#utility.yul\":6954:6957   */\n      pop\n      pop\n      pop\n        /* \"#utility.yul\":6594:7042   */\n    tag_270:\n        /* \"#utility.yul\":6503:7048   */\n      pop\n      pop\n      pop\n      jump\t// out\n        /* \"#utility.yul\":7224:8576   */\n    tag_106:\n        /* \"#utility.yul\":7350:7353   */\n      dup2\n        /* \"#utility.yul\":7344:7354   */\n      mload\n        /* \"#utility.yul\":7377:7395   */\n      0xffffffffffffffff\n        /* \"#utility.yul\":7369:7375   */\n      dup2\n        /* \"#utility.yul\":7366:7396   */\n      gt\n        /* \"#utility.yul\":7363:7419   */\n      iszero\n      tag_278\n      jumpi\n        /* \"#utility.yul\":7399:7417   */\n      tag_278\n      tag_213\n      jump\t// in\n    tag_278:\n        /* \"#utility.yul\":7428:7525   */\n      tag_279\n        /* \"#utility.yul\":7518:7524   */\n      dup2\n        /* \"#utility.yul\":7478:7516   */\n      tag_280\n        /* \"#utility.yul\":7510:7514   */\n      dup5\n        /* \"#utility.yul\":7504:7515   */\n      sload\n        /* \"#utility.yul\":7478:7516   */\n      tag_195\n      jump\t// in\n    tag_280:\n        /* \"#utility.yul\":7472:7476   */\n      dup5\n        /* \"#utility.yul\":7428:7525   */\n      tag_217\n      jump\t// in\n    tag_279:\n        /* \"#utility.yul\":7580:7584   */\n      0x20\n      dup1\n        /* \"#utility.yul\":7644:7646   */\n      0x1f\n        /* \"#utility.yul\":7633:7647   */\n      dup4\n      gt\n        /* \"#utility.yul\":7661:7662   */\n      0x01\n        /* \"#utility.yul\":7656:8319   */\n      dup2\n      eq\n      tag_282\n      jumpi\n        /* \"#utility.yul\":8363:8364   */\n      0x00\n        /* \"#utility.yul\":8380:8386   */\n      dup5\n        /* \"#utility.yul\":8377:8466   */\n      iszero\n      tag_283\n      jumpi\n      pop\n        /* \"#utility.yul\":8432:8451   */\n      dup6\n      dup4\n      add\n        /* \"#utility.yul\":8426:8452   */\n      mload\n        /* \"#utility.yul\":8377:8466   */\n    tag_283:\n      not(0x00)\n        /* \"#utility.yul\":7181:7182   */\n      0x03\n        /* \"#utility.yul\":7177:7188   */\n      dup7\n      swap1\n      shl\n        /* \"#utility.yul\":7173:7197   */\n      shr\n        /* \"#utility.yul\":7169:7198   */\n      not\n        /* \"#utility.yul\":7159:7199   */\n      and\n        /* \"#utility.yul\":7205:7206   */\n      0x01\n        /* \"#utility.yul\":7201:7212   */\n      dup6\n      swap1\n      shl\n        /* \"#utility.yul\":7156:7213   */\n      or\n        /* \"#utility.yul\":8479:8560   */\n      dup6\n      sstore\n        /* \"#utility.yul\":7626:8570   */\n      jump(tag_274)\n        /* \"#utility.yul\":7656:8319   */\n    tag_282:\n        /* \"#utility.yul\":6450:6451   */\n      0x00\n        /* \"#utility.yul\":6443:6457   */\n      dup6\n      dup2\n      mstore\n        /* \"#utility.yul\":6487:6491   */\n      0x20\n        /* \"#utility.yul\":6474:6492   */\n      dup2\n      keccak256\n      not(0x1f)\n        /* \"#utility.yul\":7692:7712   */\n      dup7\n      and\n      swap2\n        /* \"#utility.yul\":7810:8046   */\n    tag_286:\n        /* \"#utility.yul\":7824:7831   */\n      dup3\n        /* \"#utility.yul\":7821:7822   */\n      dup2\n        /* \"#utility.yul\":7818:7832   */\n      lt\n        /* \"#utility.yul\":7810:8046   */\n      iszero\n      tag_288\n      jumpi\n        /* \"#utility.yul\":7913:7932   */\n      dup9\n      dup7\n      add\n        /* \"#utility.yul\":7907:7933   */\n      mload\n        /* \"#utility.yul\":7892:7934   */\n      dup3\n      sstore\n        /* \"#utility.yul\":8005:8032   */\n      swap5\n      dup5\n      add\n      swap5\n        /* \"#utility.yul\":7973:7974   */\n      0x01\n        /* \"#utility.yul\":7961:7975   */\n      swap1\n      swap2\n      add\n      swap1\n        /* \"#utility.yul\":7840:7859   */\n      dup5\n      add\n        /* \"#utility.yul\":7810:8046   */\n      jump(tag_286)\n    tag_288:\n        /* \"#utility.yul\":7814:7817   */\n      pop\n        /* \"#utility.yul\":8074:8080   */\n      dup6\n        /* \"#utility.yul\":8065:8072   */\n      dup3\n        /* \"#utility.yul\":8062:8081   */\n      lt\n        /* \"#utility.yul\":8059:8260   */\n      iszero\n      tag_289\n      jumpi\n        /* \"#utility.yul\":8135:8154   */\n      dup8\n      dup6\n      add\n        /* \"#utility.yul\":8129:8155   */\n      mload\n      not(0x00)\n        /* \"#utility.yul\":8218:8219   */\n      0x03\n        /* \"#utility.yul\":8214:8228   */\n      dup9\n      swap1\n      shl\n        /* \"#utility.yul\":8230:8233   */\n      0xf8\n        /* \"#utility.yul\":8210:8234   */\n      and\n        /* \"#utility.yul\":8206:8243   */\n      shr\n        /* \"#utility.yul\":8202:8244   */\n      not\n        /* \"#utility.yul\":8187:8245   */\n      and\n        /* \"#utility.yul\":8172:8246   */\n      dup2\n      sstore\n        /* \"#utility.yul\":8059:8260   */\n    tag_289:\n      pop\n      pop\n      pop\n      pop\n      pop\n        /* \"#utility.yul\":8306:8307   */\n      0x01\n        /* \"#utility.yul\":8290:8304   */\n      swap1\n      dup2\n      shl\n        /* \"#utility.yul\":8286:8308   */\n      add\n        /* \"#utility.yul\":8273:8309   */\n      swap1\n      sstore\n      pop\n        /* \"#utility.yul\":7224:8576   */\n      jump\t// out\n        /* \"#utility.yul\":8937:9064   */\n    tag_128:\n        /* \"#utility.yul\":8998:9008   */\n      0x4e487b71\n        /* \"#utility.yul\":8993:8996   */\n      0xe0\n        /* \"#utility.yul\":8989:9009   */\n      shl\n        /* \"#utility.yul\":8986:8987   */\n      0x00\n        /* \"#utility.yul\":8979:9010   */\n      mstore\n        /* \"#utility.yul\":9029:9033   */\n      0x32\n        /* \"#utility.yul\":9026:9027   */\n      0x04\n        /* \"#utility.yul\":9019:9034   */\n      mstore\n        /* \"#utility.yul\":9053:9057   */\n      0x24\n        /* \"#utility.yul\":9050:9051   */\n      0x00\n        /* \"#utility.yul\":9043:9058   */\n      revert\n        /* \"#utility.yul\":9069:9196   */\n    tag_219:\n        /* \"#utility.yul\":9130:9140   */\n      0x4e487b71\n        /* \"#utility.yul\":9125:9128   */\n      0xe0\n        /* \"#utility.yul\":9121:9141   */\n      shl\n        /* \"#utility.yul\":9118:9119   */\n      0x00\n        /* \"#utility.yul\":9111:9142   */\n      mstore\n        /* \"#utility.yul\":9161:9165   */\n      0x11\n        /* \"#utility.yul\":9158:9159   */\n      0x04\n        /* \"#utility.yul\":9151:9166   */\n      mstore\n        /* \"#utility.yul\":9185:9189   */\n      0x24\n        /* \"#utility.yul\":9182:9183   */\n      0x00\n        /* \"#utility.yul\":9175:9190   */\n      revert\n        /* \"#utility.yul\":9201:9336   */\n    tag_138:\n        /* \"#utility.yul\":9240:9243   */\n      0x00\n        /* \"#utility.yul\":9261:9278   */\n      0x01\n      dup3\n      add\n        /* \"#utility.yul\":9258:9301   */\n      tag_295\n      jumpi\n        /* \"#utility.yul\":9281:9299   */\n      tag_295\n      tag_219\n      jump\t// in\n    tag_295:\n      pop\n        /* \"#utility.yul\":9328:9329   */\n      0x01\n        /* \"#utility.yul\":9317:9330   */\n      add\n      swap1\n        /* \"#utility.yul\":9201:9336   */\n      jump\t// out\n        /* \"#utility.yul\":9691:9818   */\n    tag_150:\n        /* \"#utility.yul\":9752:9762   */\n      0x4e487b71\n        /* \"#utility.yul\":9747:9750   */\n      0xe0\n        /* \"#utility.yul\":9743:9763   */\n      shl\n        /* \"#utility.yul\":9740:9741   */\n      0x00\n        /* \"#utility.yul\":9733:9764   */\n      mstore\n        /* \"#utility.yul\":9783:9787   */\n      0x01\n        /* \"#utility.yul\":9780:9781   */\n      0x04\n        /* \"#utility.yul\":9773:9788   */\n      mstore\n        /* \"#utility.yul\":9807:9811   */\n      0x24\n        /* \"#utility.yul\":9804:9805   */\n      0x00\n        /* \"#utility.yul\":9797:9812   */\n      revert\n        /* \"#utility.yul\":10883:11008   */\n    tag_170:\n        /* \"#utility.yul\":10948:10957   */\n      dup1\n      dup3\n      add\n        /* \"#utility.yul\":10969:10979   */\n      dup1\n      dup3\n      gt\n        /* \"#utility.yul\":10966:11002   */\n      iszero\n      tag_303\n      jumpi\n        /* \"#utility.yul\":10982:11000   */\n      tag_303\n      tag_219\n      jump\t// in\n    tag_303:\n        /* \"#utility.yul\":10883:11008   */\n      swap3\n      swap2\n      pop\n      pop\n      jump\t// out\n\n    auxdata: 0xa2646970667358221220a2160e6960dbee1c1e04a8a00fe2cf4901dc10ec9d9d08b4053a549eee44722c64736f6c63430008110033\n}\n",
    "bytecode": {
      "linkReferences": {},
      "object": "608060405234801561001057600080fd5b50600080546001600160a01b031916331790556111ea806100326000396000f3fe608060405234801561001057600080fd5b50600436106101365760003560e01c80637b3a74c6116100b2578063cdf58d3511610081578063df2d5ec711610066578063df2d5ec7146102d6578063dfbf53ae146102e9578063e965b7c9146102fc57600080fd5b8063cdf58d3514610287578063ce606ee0146102ab57600080fd5b80637b3a74c6146102405780639c0d443614610249578063a9ff6df11461025c578063c03366291461027f57600080fd5b80635dfb9f081161010957806366a267a9116100ee57806366a267a9146101eb5780636c0ef89d146101fe5780636dd7d8ea1461022d57600080fd5b80635dfb9f08146101d057806365372147146101e357600080fd5b806309eef43e1461013b578063200d2ed21461017357806330c880c31461018d5780634b841591146101bb575b600080fd5b61015e610149366004610d3a565b60076020526000908152604090205460ff1681565b60405190151581526020015b60405180910390f35b6005546101809060ff1681565b60405161016a9190610d72565b6101ad61019b366004610d3a565b60026020526000908152604090205481565b60405190815260200161016a565b6101ce6101c9366004610e3d565b61031f565b005b6101ce6101de366004610e94565b6104cc565b6101ce610612565b6101ad6101f9366004610d3a565b61076b565b61015e61020c366004610d3a565b6001600160a01b031660009081526009602052604090206002015460ff1690565b6101ce61023b366004610d3a565b610804565b6101ad60045481565b61015e610257366004610d3a565b6109ee565b61015e61026a366004610d3a565b60066020526000908152604090205460ff1681565b6101ce610a57565b61029a610295366004610d3a565b610aed565b60405161016a959493929190610f58565b6000546102be906001600160a01b031681565b6040516001600160a01b03909116815260200161016a565b6102be6102e4366004610f98565b610bb3565b6003546102be906001600160a01b031681565b61030f61030a366004610d3a565b610bdd565b60405161016a9493929190610fb1565b6000546001600160a01b0316331461037e5760405162461bcd60e51b815260206004820152601960248201527f596f752061696e277420746865206f776e65722c20647564650000000000000060448201526064015b60405180910390fd5b6001600160a01b03811660009081526006602052604090205460ff16156103e75760405162461bcd60e51b815260206004820152601b60248201527f566f74657220697320616c7265616479207265676973746572656400000000006044820152606401610375565b6001600160a01b0381166000818152600660209081526040808320805460ff19166001908117909155815160a081018352888152808401889052808301919091526060810184905260808101859052938352600990915290208151819061044e9082611080565b506020820151600182015560408201516002909101805460608401516080909401516001600160a01b031662010000027fffffffffffffffffffff0000000000000000000000000000000000000000ffff9415156101000261ff00199415159490941661ffff19909216919091179290921792909216179055505050565b6000546001600160a01b031633146105265760405162461bcd60e51b815260206004820152601960248201527f596f752061696e277420746865206f776e65722c2064756465000000000000006044820152606401610375565b600180548082019091557fb10e2d527612073b26eecdfd717e6a320cf44b4afac2b0732d9fcbe2b7fa0cf601805473ffffffffffffffffffffffffffffffffffffffff19166001600160a01b038316908117909155604080516080810182528681526020808201879052818301869052606082018490526000938452600890529120815181906105b69082611080565b5060208201516001820155604082015160028201906105d59082611080565b50606091909101516003909101805473ffffffffffffffffffffffffffffffffffffffff19166001600160a01b0390921691909117905550505050565b600260055460ff16600281111561062b5761062b610d5c565b146106785760405162461bcd60e51b815260206004820152601b60248201527f566f74696e672069736e277420636f6d706c65746564207965742100000000006044820152606401610375565b60005b60015481101561076857600454600260006001848154811061069f5761069f611140565b60009182526020808320909101546001600160a01b0316835282019290925260400190205411156107565760026000600183815481106106e1576106e1611140565b60009182526020808320909101546001600160a01b03168352820192909252604001902054600455600180548290811061071d5761071d611140565b6000918252602090912001546003805473ffffffffffffffffffffffffffffffffffffffff19166001600160a01b039092169190911790555b806107608161116c565b91505061067b565b50565b6000610776826109ee565b6107c25760405162461bcd60e51b815260206004820152601560248201527f4e6f7420612076616c69642043616e64696461746500000000000000000000006044820152606401610375565b600160055460ff1660028111156107db576107db610d5c565b146107e8576107e8611185565b506001600160a01b031660009081526002602052604090205490565b61080d816109ee565b6108595760405162461bcd60e51b815260206004820152601560248201527f4e6f7420612076616c69642043616e64696461746500000000000000000000006044820152606401610375565b600160055460ff16600281111561087257610872610d5c565b146108bf5760405162461bcd60e51b815260206004820152601560248201527f566f74696e67206973206e6f74207374617274656400000000000000000000006044820152606401610375565b3360009081526006602052604090205460ff1661091e5760405162461bcd60e51b815260206004820152601e60248201527f596f7520617265206e6f742061207265676973746572656420766f74657200006044820152606401610375565b3360009081526007602052604090205460ff161561097e5760405162461bcd60e51b815260206004820152601660248201527f596f75206861766520616c726561647920766f746564000000000000000000006044820152606401610375565b6001600160a01b0381166000908152600260205260409020546109a290600161119b565b6001600160a01b0390911660009081526002602081815260408084209490945533835260078152838320805460ff191660011790556009905291902001805461ff001916610100179055565b6000805b600154811015610a4e57826001600160a01b031660018281548110610a1957610a19611140565b6000918252602090912001546001600160a01b031603610a3c5750600192915050565b80610a468161116c565b9150506109f2565b50600092915050565b6000546001600160a01b03163314610ab15760405162461bcd60e51b815260206004820152601960248201527f596f752061696e277420746865206f776e65722c2064756465000000000000006044820152606401610375565b600160055460ff166002811115610aca57610aca610d5c565b03610ade576005805460ff19166002179055565b6005805460ff19166001179055565b600960205260009081526040902080548190610b0890610ff7565b80601f0160208091040260200160405190810160405280929190818152602001828054610b3490610ff7565b8015610b815780601f10610b5657610100808354040283529160200191610b81565b820191906000526020600020905b815481529060010190602001808311610b6457829003601f168201915b50505050600183015460029093015491929160ff8082169250610100820416906201000090046001600160a01b031685565b60018181548110610bc357600080fd5b6000918252602090912001546001600160a01b0316905081565b600860205260009081526040902080548190610bf890610ff7565b80601f0160208091040260200160405190810160405280929190818152602001828054610c2490610ff7565b8015610c715780601f10610c4657610100808354040283529160200191610c71565b820191906000526020600020905b815481529060010190602001808311610c5457829003601f168201915b505050505090806001015490806002018054610c8c90610ff7565b80601f0160208091040260200160405190810160405280929190818152602001828054610cb890610ff7565b8015610d055780601f10610cda57610100808354040283529160200191610d05565b820191906000526020600020905b815481529060010190602001808311610ce857829003601f168201915b505050600390930154919250506001600160a01b031684565b80356001600160a01b0381168114610d3557600080fd5b919050565b600060208284031215610d4c57600080fd5b610d5582610d1e565b9392505050565b634e487b7160e01b600052602160045260246000fd5b6020810160038310610d9457634e487b7160e01b600052602160045260246000fd5b91905290565b634e487b7160e01b600052604160045260246000fd5b600082601f830112610dc157600080fd5b813567ffffffffffffffff80821115610ddc57610ddc610d9a565b604051601f8301601f19908116603f01168101908282118183101715610e0457610e04610d9a565b81604052838152866020858801011115610e1d57600080fd5b836020870160208301376000602085830101528094505050505092915050565b600080600060608486031215610e5257600080fd5b833567ffffffffffffffff811115610e6957600080fd5b610e7586828701610db0565b93505060208401359150610e8b60408501610d1e565b90509250925092565b60008060008060808587031215610eaa57600080fd5b843567ffffffffffffffff80821115610ec257600080fd5b610ece88838901610db0565b9550602087013594506040870135915080821115610eeb57600080fd5b50610ef887828801610db0565b925050610f0760608601610d1e565b905092959194509250565b6000815180845260005b81811015610f3857602081850181015186830182015201610f1c565b506000602082860101526020601f19601f83011685010191505092915050565b60a081526000610f6b60a0830188610f12565b602083019690965250921515604084015290151560608301526001600160a01b0316608090910152919050565b600060208284031215610faa57600080fd5b5035919050565b608081526000610fc46080830187610f12565b8560208401528281036040840152610fdc8186610f12565b9150506001600160a01b038316606083015295945050505050565b600181811c9082168061100b57607f821691505b60208210810361102b57634e487b7160e01b600052602260045260246000fd5b50919050565b601f82111561107b57600081815260208120601f850160051c810160208610156110585750805b601f850160051c820191505b8181101561107757828155600101611064565b5050505b505050565b815167ffffffffffffffff81111561109a5761109a610d9a565b6110ae816110a88454610ff7565b84611031565b602080601f8311600181146110e357600084156110cb5750858301515b600019600386901b1c1916600185901b178555611077565b600085815260208120601f198616915b82811015611112578886015182559484019460019091019084016110f3565b50858210156111305787850151600019600388901b60f8161c191681555b5050505050600190811b01905550565b634e487b7160e01b600052603260045260246000fd5b634e487b7160e01b600052601160045260246000fd5b60006001820161117e5761117e611156565b5060010190565b634e487b7160e01b600052600160045260246000fd5b808201808211156111ae576111ae611156565b9291505056fea2646970667358221220a2160e6960dbee1c1e04a8a00fe2cf4901dc10ec9d9d08b4053a549eee44722c64736f6c63430008110033",
      "opcodes": "PUSH1 0x80 PUSH1 0x40 MSTORE CALLVALUE DUP1 ISZERO PUSH2 0x10 JUMPI PUSH1 0x0 DUP1 REVERT JUMPDEST POP PUSH1 0x0 DUP1 SLOAD PUSH1 0x1 PUSH1 0x1 PUSH1 0xA0 SHL SUB NOT AND CALLER OR SWAP1 SSTORE PUSH2 0x11EA DUP1 PUSH2 0x32 PUSH1 0x0 CODECOPY PUSH1 0x0 RETURN INVALID PUSH1 0x80 PUSH1 0x40 MSTORE CALLVALUE DUP1 ISZERO PUSH2 0x10 JUMPI PUSH1 0x0 DUP1 REVERT JUMPDEST POP PUSH1 0x4 CALLDATASIZE LT PUSH2 0x136 JUMPI PUSH1 0x0 CALLDATALOAD PUSH1 0xE0 SHR DUP1 PUSH4 0x7B3A74C6 GT PUSH2 0xB2 JUMPI DUP1 PUSH4 0xCDF58D35 GT PUSH2 0x81 JUMPI DUP1 PUSH4 0xDF2D5EC7 GT PUSH2 0x66 JUMPI DUP1 PUSH4 0xDF2D5EC7 EQ PUSH2 0x2D6 JUMPI DUP1 PUSH4 0xDFBF53AE EQ PUSH2 0x2E9 JUMPI DUP1 PUSH4 0xE965B7C9 EQ PUSH2 0x2FC JUMPI PUSH1 0x0 DUP1 REVERT JUMPDEST DUP1 PUSH4 0xCDF58D35 EQ PUSH2 0x287 JUMPI DUP1 PUSH4 0xCE606EE0 EQ PUSH2 0x2AB JUMPI PUSH1 0x0 DUP1 REVERT JUMPDEST DUP1 PUSH4 0x7B3A74C6 EQ PUSH2 0x240 JUMPI DUP1 PUSH4 0x9C0D4436 EQ PUSH2 0x249 JUMPI DUP1 PUSH4 0xA9FF6DF1 EQ PUSH2 0x25C JUMPI DUP1 PUSH4 0xC0336629 EQ PUSH2 0x27F JUMPI PUSH1 0x0 DUP1 REVERT JUMPDEST DUP1 PUSH4 0x5DFB9F08 GT PUSH2 0x109 JUMPI DUP1 PUSH4 0x66A267A9 GT PUSH2 0xEE JUMPI DUP1 PUSH4 0x66A267A9 EQ PUSH2 0x1EB JUMPI DUP1 PUSH4 0x6C0EF89D EQ PUSH2 0x1FE JUMPI DUP1 PUSH4 0x6DD7D8EA EQ PUSH2 0x22D JUMPI PUSH1 0x0 DUP1 REVERT JUMPDEST DUP1 PUSH4 0x5DFB9F08 EQ PUSH2 0x1D0 JUMPI DUP1 PUSH4 0x65372147 EQ PUSH2 0x1E3 JUMPI PUSH1 0x0 DUP1 REVERT JUMPDEST DUP1 PUSH4 0x9EEF43E EQ PUSH2 0x13B JUMPI DUP1 PUSH4 0x200D2ED2 EQ PUSH2 0x173 JUMPI DUP1 PUSH4 0x30C880C3 EQ PUSH2 0x18D JUMPI DUP1 PUSH4 0x4B841591 EQ PUSH2 0x1BB JUMPI JUMPDEST PUSH1 0x0 DUP1 REVERT JUMPDEST PUSH2 0x15E PUSH2 0x149 CALLDATASIZE PUSH1 0x4 PUSH2 0xD3A JUMP JUMPDEST PUSH1 0x7 PUSH1 0x20 MSTORE PUSH1 0x0 SWAP1 DUP2 MSTORE PUSH1 0x40 SWAP1 KECCAK256 SLOAD PUSH1 0xFF AND DUP2 JUMP JUMPDEST PUSH1 0x40 MLOAD SWAP1 ISZERO ISZERO DUP2 MSTORE PUSH1 0x20 ADD JUMPDEST PUSH1 0x40 MLOAD DUP1 SWAP2 SUB SWAP1 RETURN JUMPDEST PUSH1 0x5 SLOAD PUSH2 0x180 SWAP1 PUSH1 0xFF AND DUP2 JUMP JUMPDEST PUSH1 0x40 MLOAD PUSH2 0x16A SWAP2 SWAP1 PUSH2 0xD72 JUMP JUMPDEST PUSH2 0x1AD PUSH2 0x19B CALLDATASIZE PUSH1 0x4 PUSH2 0xD3A JUMP JUMPDEST PUSH1 0x2 PUSH1 0x20 MSTORE PUSH1 0x0 SWAP1 DUP2 MSTORE PUSH1 0x40 SWAP1 KECCAK256 SLOAD DUP2 JUMP JUMPDEST PUSH1 0x40 MLOAD SWAP1 DUP2 MSTORE PUSH1 0x20 ADD PUSH2 0x16A JUMP JUMPDEST PUSH2 0x1CE PUSH2 0x1C9 CALLDATASIZE PUSH1 0x4 PUSH2 0xE3D JUMP JUMPDEST PUSH2 0x31F JUMP JUMPDEST STOP JUMPDEST PUSH2 0x1CE PUSH2 0x1DE CALLDATASIZE PUSH1 0x4 PUSH2 0xE94 JUMP JUMPDEST PUSH2 0x4CC JUMP JUMPDEST PUSH2 0x1CE PUSH2 0x612 JUMP JUMPDEST PUSH2 0x1AD PUSH2 0x1F9 CALLDATASIZE PUSH1 0x4 PUSH2 0xD3A JUMP JUMPDEST PUSH2 0x76B JUMP JUMPDEST PUSH2 0x15E PUSH2 0x20C CALLDATASIZE PUSH1 0x4 PUSH2 0xD3A JUMP JUMPDEST PUSH1 0x1 PUSH1 0x1 PUSH1 0xA0 SHL SUB AND PUSH1 0x0 SWAP1 DUP2 MSTORE PUSH1 0x9 PUSH1 0x20 MSTORE PUSH1 0x40 SWAP1 KECCAK256 PUSH1 0x2 ADD SLOAD PUSH1 0xFF AND SWAP1 JUMP JUMPDEST PUSH2 0x1CE PUSH2 0x23B CALLDATASIZE PUSH1 0x4 PUSH2 0xD3A JUMP JUMPDEST PUSH2 0x804 JUMP JUMPDEST PUSH2 0x1AD PUSH1 0x4 SLOAD DUP2 JUMP JUMPDEST PUSH2 0x15E PUSH2 0x257 CALLDATASIZE PUSH1 0x4 PUSH2 0xD3A JUMP JUMPDEST PUSH2 0x9EE JUMP JUMPDEST PUSH2 0x15E PUSH2 0x26A CALLDATASIZE PUSH1 0x4 PUSH2 0xD3A JUMP JUMPDEST PUSH1 0x6 PUSH1 0x20 MSTORE PUSH1 0x0 SWAP1 DUP2 MSTORE PUSH1 0x40 SWAP1 KECCAK256 SLOAD PUSH1 0xFF AND DUP2 JUMP JUMPDEST PUSH2 0x1CE PUSH2 0xA57 JUMP JUMPDEST PUSH2 0x29A PUSH2 0x295 CALLDATASIZE PUSH1 0x4 PUSH2 0xD3A JUMP JUMPDEST PUSH2 0xAED JUMP JUMPDEST PUSH1 0x40 MLOAD PUSH2 0x16A SWAP6 SWAP5 SWAP4 SWAP3 SWAP2 SWAP1 PUSH2 0xF58 JUMP JUMPDEST PUSH1 0x0 SLOAD PUSH2 0x2BE SWAP1 PUSH1 0x1 PUSH1 0x1 PUSH1 0xA0 SHL SUB AND DUP2 JUMP JUMPDEST PUSH1 0x40 MLOAD PUSH1 0x1 PUSH1 0x1 PUSH1 0xA0 SHL SUB SWAP1 SWAP2 AND DUP2 MSTORE PUSH1 0x20 ADD PUSH2 0x16A JUMP JUMPDEST PUSH2 0x2BE PUSH2 0x2E4 CALLDATASIZE PUSH1 0x4 PUSH2 0xF98 JUMP JUMPDEST PUSH2 0xBB3 JUMP JUMPDEST PUSH1 0x3 SLOAD PUSH2 0x2BE SWAP1 PUSH1 0x1 PUSH1 0x1 PUSH1 0xA0 SHL SUB AND DUP2 JUMP JUMPDEST PUSH2 0x30F PUSH2 0x30A CALLDATASIZE PUSH1 0x4 PUSH2 0xD3A JUMP JUMPDEST PUSH2 0xBDD JUMP JUMPDEST PUSH1 0x40 MLOAD PUSH2 0x16A SWAP5 SWAP4 SWAP3 SWAP2 SWAP1 PUSH2 0xFB1 JUMP JUMPDEST PUSH1 0x0 SLOAD PUSH1 0x1 PUSH1 0x1 PUSH1 0xA0 SHL SUB AND CALLER EQ PUSH2 0x37E JUMPI PUSH1 0x40 MLOAD PUSH3 0x461BCD PUSH1 0xE5 SHL DUP2 MSTORE PUSH1 0x20 PUSH1 0x4 DUP3 ADD MSTORE PUSH1 0x19 PUSH1 0x24 DUP3 ADD MSTORE PUSH32 0x596F752061696E277420746865206F776E65722C206475646500000000000000 PUSH1 0x44 DUP3 ADD MSTORE PUSH1 0x64 ADD JUMPDEST PUSH1 0x40 MLOAD DUP1 SWAP2 SUB SWAP1 REVERT JUMPDEST PUSH1 0x1 PUSH1 0x1 PUSH1 0xA0 SHL SUB DUP2 AND PUSH1 0x0 SWAP1 DUP2 MSTORE PUSH1 0x6 PUSH1 0x20 MSTORE PUSH1 0x40 SWAP1 KECCAK256 SLOAD PUSH1 0xFF AND ISZERO PUSH2 0x3E7 JUMPI PUSH1 0x40 MLOAD PUSH3 0x461BCD PUSH1 0xE5 SHL DUP2 MSTORE PUSH1 0x20 PUSH1 0x4 DUP3 ADD MSTORE PUSH1 0x1B PUSH1 0x24 DUP3 ADD MSTORE PUSH32 0x566F74657220697320616C726561647920726567697374657265640000000000 PUSH1 0x44 DUP3 ADD MSTORE PUSH1 0x64 ADD PUSH2 0x375 JUMP JUMPDEST PUSH1 0x1 PUSH1 0x1 PUSH1 0xA0 SHL SUB DUP2 AND PUSH1 0x0 DUP2 DUP2 MSTORE PUSH1 0x6 PUSH1 0x20 SWAP1 DUP2 MSTORE PUSH1 0x40 DUP1 DUP4 KECCAK256 DUP1 SLOAD PUSH1 0xFF NOT AND PUSH1 0x1 SWAP1 DUP2 OR SWAP1 SWAP2 SSTORE DUP2 MLOAD PUSH1 0xA0 DUP2 ADD DUP4 MSTORE DUP9 DUP2 MSTORE DUP1 DUP5 ADD DUP9 SWAP1 MSTORE DUP1 DUP4 ADD SWAP2 SWAP1 SWAP2 MSTORE PUSH1 0x60 DUP2 ADD DUP5 SWAP1 MSTORE PUSH1 0x80 DUP2 ADD DUP6 SWAP1 MSTORE SWAP4 DUP4 MSTORE PUSH1 0x9 SWAP1 SWAP2 MSTORE SWAP1 KECCAK256 DUP2 MLOAD DUP2 SWAP1 PUSH2 0x44E SWAP1 DUP3 PUSH2 0x1080 JUMP JUMPDEST POP PUSH1 0x20 DUP3 ADD MLOAD PUSH1 0x1 DUP3 ADD SSTORE PUSH1 0x40 DUP3 ADD MLOAD PUSH1 0x2 SWAP1 SWAP2 ADD DUP1 SLOAD PUSH1 0x60 DUP5 ADD MLOAD PUSH1 0x80 SWAP1 SWAP5 ADD MLOAD PUSH1 0x1 PUSH1 0x1 PUSH1 0xA0 SHL SUB AND PUSH3 0x10000 MUL PUSH32 0xFFFFFFFFFFFFFFFFFFFF0000000000000000000000000000000000000000FFFF SWAP5 ISZERO ISZERO PUSH2 0x100 MUL PUSH2 0xFF00 NOT SWAP5 ISZERO ISZERO SWAP5 SWAP1 SWAP5 AND PUSH2 0xFFFF NOT SWAP1 SWAP3 AND SWAP2 SWAP1 SWAP2 OR SWAP3 SWAP1 SWAP3 OR SWAP3 SWAP1 SWAP3 AND OR SWAP1 SSTORE POP POP POP JUMP JUMPDEST PUSH1 0x0 SLOAD PUSH1 0x1 PUSH1 0x1 PUSH1 0xA0 SHL SUB AND CALLER EQ PUSH2 0x526 JUMPI PUSH1 0x40 MLOAD PUSH3 0x461BCD PUSH1 0xE5 SHL DUP2 MSTORE PUSH1 0x20 PUSH1 0x4 DUP3 ADD MSTORE PUSH1 0x19 PUSH1 0x24 DUP3 ADD MSTORE PUSH32 0x596F752061696E277420746865206F776E65722C206475646500000000000000 PUSH1 0x44 DUP3 ADD MSTORE PUSH1 0x64 ADD PUSH2 0x375 JUMP JUMPDEST PUSH1 0x1 DUP1 SLOAD DUP1 DUP3 ADD SWAP1 SWAP2 SSTORE PUSH32 0xB10E2D527612073B26EECDFD717E6A320CF44B4AFAC2B0732D9FCBE2B7FA0CF6 ADD DUP1 SLOAD PUSH20 0xFFFFFFFFFFFFFFFFFFFFFFFFFFFFFFFFFFFFFFFF NOT AND PUSH1 0x1 PUSH1 0x1 PUSH1 0xA0 SHL SUB DUP4 AND SWAP1 DUP2 OR SWAP1 SWAP2 SSTORE PUSH1 0x40 DUP1 MLOAD PUSH1 0x80 DUP2 ADD DUP3 MSTORE DUP7 DUP2 MSTORE PUSH1 0x20 DUP1 DUP3 ADD DUP8 SWAP1 MSTORE DUP2 DUP4 ADD DUP7 SWAP1 MSTORE PUSH1 0x60 DUP3 ADD DUP5 SWAP1 MSTORE PUSH1 0x0 SWAP4 DUP5 MSTORE PUSH1 0x8 SWAP1 MSTORE SWAP2 KECCAK256 DUP2 MLOAD DUP2 SWAP1 PUSH2 0x5B6 SWAP1 DUP3 PUSH2 0x1080 JUMP JUMPDEST POP PUSH1 0x20 DUP3 ADD MLOAD PUSH1 0x1 DUP3 ADD SSTORE PUSH1 0x40 DUP3 ADD MLOAD PUSH1 0x2 DUP3 ADD SWAP1 PUSH2 0x5D5 SWAP1 DUP3 PUSH2 0x1080 JUMP JUMPDEST POP PUSH1 0x60 SWAP2 SWAP1 SWAP2 ADD MLOAD PUSH1 0x3 SWAP1 SWAP2 ADD DUP1 SLOAD PUSH20 0xFFFFFFFFFFFFFFFFFFFFFFFFFFFFFFFFFFFFFFFF NOT AND PUSH1 0x1 PUSH1 0x1 PUSH1 0xA0 SHL SUB SWAP1 SWAP3 AND SWAP2 SWAP1 SWAP2 OR SWAP1 SSTORE POP POP POP POP JUMP JUMPDEST PUSH1 0x2 PUSH1 0x5 SLOAD PUSH1 0xFF AND PUSH1 0x2 DUP2 GT ISZERO PUSH2 0x62B JUMPI PUSH2 0x62B PUSH2 0xD5C JUMP JUMPDEST EQ PUSH2 0x678 JUMPI PUSH1 0x40 MLOAD PUSH3 0x461BCD PUSH1 0xE5 SHL DUP2 MSTORE PUSH1 0x20 PUSH1 0x4 DUP3 ADD MSTORE PUSH1 0x1B PUSH1 0x24 DUP3 ADD MSTORE PUSH32 0x566F74696E672069736E277420636F6D706C6574656420796574210000000000 PUSH1 0x44 DUP3 ADD MSTORE PUSH1 0x64 ADD PUSH2 0x375 JUMP JUMPDEST PUSH1 0x0 JUMPDEST PUSH1 0x1 SLOAD DUP2 LT ISZERO PUSH2 0x768 JUMPI PUSH1 0x4 SLOAD PUSH1 0x2 PUSH1 0x0 PUSH1 0x1 DUP5 DUP2 SLOAD DUP2 LT PUSH2 0x69F JUMPI PUSH2 0x69F PUSH2 0x1140 JUMP JUMPDEST PUSH1 0x0 SWAP2 DUP3 MSTORE PUSH1 0x20 DUP1 DUP4 KECCAK256 SWAP1 SWAP2 ADD SLOAD PUSH1 0x1 PUSH1 0x1 PUSH1 0xA0 SHL SUB AND DUP4 MSTORE DUP3 ADD SWAP3 SWAP1 SWAP3 MSTORE PUSH1 0x40 ADD SWAP1 KECCAK256 SLOAD GT ISZERO PUSH2 0x756 JUMPI PUSH1 0x2 PUSH1 0x0 PUSH1 0x1 DUP4 DUP2 SLOAD DUP2 LT PUSH2 0x6E1 JUMPI PUSH2 0x6E1 PUSH2 0x1140 JUMP JUMPDEST PUSH1 0x0 SWAP2 DUP3 MSTORE PUSH1 0x20 DUP1 DUP4 KECCAK256 SWAP1 SWAP2 ADD SLOAD PUSH1 0x1 PUSH1 0x1 PUSH1 0xA0 SHL SUB AND DUP4 MSTORE DUP3 ADD SWAP3 SWAP1 SWAP3 MSTORE PUSH1 0x40 ADD SWAP1 KECCAK256 SLOAD PUSH1 0x4 SSTORE PUSH1 0x1 DUP1 SLOAD DUP3 SWAP1 DUP2 LT PUSH2 0x71D JUMPI PUSH2 0x71D PUSH2 0x1140 JUMP JUMPDEST PUSH1 0x0 SWAP2 DUP3 MSTORE PUSH1 0x20 SWAP1 SWAP2 KECCAK256 ADD SLOAD PUSH1 0x3 DUP1 SLOAD PUSH20 0xFFFFFFFFFFFFFFFFFFFFFFFFFFFFFFFFFFFFFFFF NOT AND PUSH1 0x1 PUSH1 0x1 PUSH1 0xA0 SHL SUB SWAP1 SWAP3 AND SWAP2 SWAP1 SWAP2 OR SWAP1 SSTORE JUMPDEST DUP1 PUSH2 0x760 DUP2 PUSH2 0x116C JUMP JUMPDEST SWAP2 POP POP PUSH2 0x67B JUMP JUMPDEST POP JUMP JUMPDEST PUSH1 0x0 PUSH2 0x776 DUP3 PUSH2 0x9EE JUMP JUMPDEST PUSH2 0x7C2 JUMPI PUSH1 0x40 MLOAD PUSH3 0x461BCD PUSH1 0xE5 SHL DUP2 MSTORE PUSH1 0x20 PUSH1 0x4 DUP3 ADD MSTORE PUSH1 0x15 PUSH1 0x24 DUP3 ADD MSTORE PUSH32 0x4E6F7420612076616C69642043616E6469646174650000000000000000000000 PUSH1 0x44 DUP3 ADD MSTORE PUSH1 0x64 ADD PUSH2 0x375 JUMP JUMPDEST PUSH1 0x1 PUSH1 0x5 SLOAD PUSH1 0xFF AND PUSH1 0x2 DUP2 GT ISZERO PUSH2 0x7DB JUMPI PUSH2 0x7DB PUSH2 0xD5C JUMP JUMPDEST EQ PUSH2 0x7E8 JUMPI PUSH2 0x7E8 PUSH2 0x1185 JUMP JUMPDEST POP PUSH1 0x1 PUSH1 0x1 PUSH1 0xA0 SHL SUB AND PUSH1 0x0 SWAP1 DUP2 MSTORE PUSH1 0x2 PUSH1 0x20 MSTORE PUSH1 0x40 SWAP1 KECCAK256 SLOAD SWAP1 JUMP JUMPDEST PUSH2 0x80D DUP2 PUSH2 0x9EE JUMP JUMPDEST PUSH2 0x859 JUMPI PUSH1 0x40 MLOAD PUSH3 0x461BCD PUSH1 0xE5 SHL DUP2 MSTORE PUSH1 0x20 PUSH1 0x4 DUP3 ADD MSTORE PUSH1 0x15 PUSH1 0x24 DUP3 ADD MSTORE PUSH32 0x4E6F7420612076616C69642043616E6469646174650000000000000000000000 PUSH1 0x44 DUP3 ADD MSTORE PUSH1 0x64 ADD PUSH2 0x375 JUMP JUMPDEST PUSH1 0x1 PUSH1 0x5 SLOAD PUSH1 0xFF AND PUSH1 0x2 DUP2 GT ISZERO PUSH2 0x872 JUMPI PUSH2 0x872 PUSH2 0xD5C JUMP JUMPDEST EQ PUSH2 0x8BF JUMPI PUSH1 0x40 MLOAD PUSH3 0x461BCD PUSH1 0xE5 SHL DUP2 MSTORE PUSH1 0x20 PUSH1 0x4 DUP3 ADD MSTORE PUSH1 0x15 PUSH1 0x24 DUP3 ADD MSTORE PUSH32 0x566F74696E67206973206E6F7420737461727465640000000000000000000000 PUSH1 0x44 DUP3 ADD MSTORE PUSH1 0x64 ADD PUSH2 0x375 JUMP JUMPDEST CALLER PUSH1 0x0 SWAP1 DUP2 MSTORE PUSH1 0x6 PUSH1 0x20 MSTORE PUSH1 0x40 SWAP1 KECCAK256 SLOAD PUSH1 0xFF AND PUSH2 0x91E JUMPI PUSH1 0x40 MLOAD PUSH3 0x461BCD PUSH1 0xE5 SHL DUP2 MSTORE PUSH1 0x20 PUSH1 0x4 DUP3 ADD MSTORE PUSH1 0x1E PUSH1 0x24 DUP3 ADD MSTORE PUSH32 0x596F7520617265206E6F742061207265676973746572656420766F7465720000 PUSH1 0x44 DUP3 ADD MSTORE PUSH1 0x64 ADD PUSH2 0x375 JUMP JUMPDEST CALLER PUSH1 0x0 SWAP1 DUP2 MSTORE PUSH1 0x7 PUSH1 0x20 MSTORE PUSH1 0x40 SWAP1 KECCAK256 SLOAD PUSH1 0xFF AND ISZERO PUSH2 0x97E JUMPI PUSH1 0x40 MLOAD PUSH3 0x461BCD PUSH1 0xE5 SHL DUP2 MSTORE PUSH1 0x20 PUSH1 0x4 DUP3 ADD MSTORE PUSH1 0x16 PUSH1 0x24 DUP3 ADD MSTORE PUSH32 0x596F75206861766520616C726561647920766F74656400000000000000000000 PUSH1 0x44 DUP3 ADD MSTORE PUSH1 0x64 ADD PUSH2 0x375 JUMP JUMPDEST PUSH1 0x1 PUSH1 0x1 PUSH1 0xA0 SHL SUB DUP2 AND PUSH1 0x0 SWAP1 DUP2 MSTORE PUSH1 0x2 PUSH1 0x20 MSTORE PUSH1 0x40 SWAP1 KECCAK256 SLOAD PUSH2 0x9A2 SWAP1 PUSH1 0x1 PUSH2 0x119B JUMP JUMPDEST PUSH1 0x1 PUSH1 0x1 PUSH1 0xA0 SHL SUB SWAP1 SWAP2 AND PUSH1 0x0 SWAP1 DUP2 MSTORE PUSH1 0x2 PUSH1 0x20 DUP2 DUP2 MSTORE PUSH1 0x40 DUP1 DUP5 KECCAK256 SWAP5 SWAP1 SWAP5 SSTORE CALLER DUP4 MSTORE PUSH1 0x7 DUP2 MSTORE DUP4 DUP4 KECCAK256 DUP1 SLOAD PUSH1 0xFF NOT AND PUSH1 0x1 OR SWAP1 SSTORE PUSH1 0x9 SWAP1 MSTORE SWAP2 SWAP1 KECCAK256 ADD DUP1 SLOAD PUSH2 0xFF00 NOT AND PUSH2 0x100 OR SWAP1 SSTORE JUMP JUMPDEST PUSH1 0x0 DUP1 JUMPDEST PUSH1 0x1 SLOAD DUP2 LT ISZERO PUSH2 0xA4E JUMPI DUP3 PUSH1 0x1 PUSH1 0x1 PUSH1 0xA0 SHL SUB AND PUSH1 0x1 DUP3 DUP2 SLOAD DUP2 LT PUSH2 0xA19 JUMPI PUSH2 0xA19 PUSH2 0x1140 JUMP JUMPDEST PUSH1 0x0 SWAP2 DUP3 MSTORE PUSH1 0x20 SWAP1 SWAP2 KECCAK256 ADD SLOAD PUSH1 0x1 PUSH1 0x1 PUSH1 0xA0 SHL SUB AND SUB PUSH2 0xA3C JUMPI POP PUSH1 0x1 SWAP3 SWAP2 POP POP JUMP JUMPDEST DUP1 PUSH2 0xA46 DUP2 PUSH2 0x116C JUMP JUMPDEST SWAP2 POP POP PUSH2 0x9F2 JUMP JUMPDEST POP PUSH1 0x0 SWAP3 SWAP2 POP POP JUMP JUMPDEST PUSH1 0x0 SLOAD PUSH1 0x1 PUSH1 0x1 PUSH1 0xA0 SHL SUB AND CALLER EQ PUSH2 0xAB1 JUMPI PUSH1 0x40 MLOAD PUSH3 0x461BCD PUSH1 0xE5 SHL DUP2 MSTORE PUSH1 0x20 PUSH1 0x4 DUP3 ADD MSTORE PUSH1 0x19 PUSH1 0x24 DUP3 ADD MSTORE PUSH32 0x596F752061696E277420746865206F776E65722C206475646500000000000000 PUSH1 0x44 DUP3 ADD MSTORE PUSH1 0x64 ADD PUSH2 0x375 JUMP JUMPDEST PUSH1 0x1 PUSH1 0x5 SLOAD PUSH1 0xFF AND PUSH1 0x2 DUP2 GT ISZERO PUSH2 0xACA JUMPI PUSH2 0xACA PUSH2 0xD5C JUMP JUMPDEST SUB PUSH2 0xADE JUMPI PUSH1 0x5 DUP1 SLOAD PUSH1 0xFF NOT AND PUSH1 0x2 OR SWAP1 SSTORE JUMP JUMPDEST PUSH1 0x5 DUP1 SLOAD PUSH1 0xFF NOT AND PUSH1 0x1 OR SWAP1 SSTORE JUMP JUMPDEST PUSH1 0x9 PUSH1 0x20 MSTORE PUSH1 0x0 SWAP1 DUP2 MSTORE PUSH1 0x40 SWAP1 KECCAK256 DUP1 SLOAD DUP2 SWAP1 PUSH2 0xB08 SWAP1 PUSH2 0xFF7 JUMP JUMPDEST DUP1 PUSH1 0x1F ADD PUSH1 0x20 DUP1 SWAP2 DIV MUL PUSH1 0x20 ADD PUSH1 0x40 MLOAD SWAP1 DUP2 ADD PUSH1 0x40 MSTORE DUP1 SWAP3 SWAP2 SWAP1 DUP2 DUP2 MSTORE PUSH1 0x20 ADD DUP3 DUP1 SLOAD PUSH2 0xB34 SWAP1 PUSH2 0xFF7 JUMP JUMPDEST DUP1 ISZERO PUSH2 0xB81 JUMPI DUP1 PUSH1 0x1F LT PUSH2 0xB56 JUMPI PUSH2 0x100 DUP1 DUP4 SLOAD DIV MUL DUP4 MSTORE SWAP2 PUSH1 0x20 ADD SWAP2 PUSH2 0xB81 JUMP JUMPDEST DUP3 ADD SWAP2 SWAP1 PUSH1 0x0 MSTORE PUSH1 0x20 PUSH1 0x0 KECCAK256 SWAP1 JUMPDEST DUP2 SLOAD DUP2 MSTORE SWAP1 PUSH1 0x1 ADD SWAP1 PUSH1 0x20 ADD DUP1 DUP4 GT PUSH2 0xB64 JUMPI DUP3 SWAP1 SUB PUSH1 0x1F AND DUP3 ADD SWAP2 JUMPDEST POP POP POP POP PUSH1 0x1 DUP4 ADD SLOAD PUSH1 0x2 SWAP1 SWAP4 ADD SLOAD SWAP2 SWAP3 SWAP2 PUSH1 0xFF DUP1 DUP3 AND SWAP3 POP PUSH2 0x100 DUP3 DIV AND SWAP1 PUSH3 0x10000 SWAP1 DIV PUSH1 0x1 PUSH1 0x1 PUSH1 0xA0 SHL SUB AND DUP6 JUMP JUMPDEST PUSH1 0x1 DUP2 DUP2 SLOAD DUP2 LT PUSH2 0xBC3 JUMPI PUSH1 0x0 DUP1 REVERT JUMPDEST PUSH1 0x0 SWAP2 DUP3 MSTORE PUSH1 0x20 SWAP1 SWAP2 KECCAK256 ADD SLOAD PUSH1 0x1 PUSH1 0x1 PUSH1 0xA0 SHL SUB AND SWAP1 POP DUP2 JUMP JUMPDEST PUSH1 0x8 PUSH1 0x20 MSTORE PUSH1 0x0 SWAP1 DUP2 MSTORE PUSH1 0x40 SWAP1 KECCAK256 DUP1 SLOAD DUP2 SWAP1 PUSH2 0xBF8 SWAP1 PUSH2 0xFF7 JUMP JUMPDEST DUP1 PUSH1 0x1F ADD PUSH1 0x20 DUP1 SWAP2 DIV MUL PUSH1 0x20 ADD PUSH1 0x40 MLOAD SWAP1 DUP2 ADD PUSH1 0x40 MSTORE DUP1 SWAP3 SWAP2 SWAP1 DUP2 DUP2 MSTORE PUSH1 0x20 ADD DUP3 DUP1 SLOAD PUSH2 0xC24 SWAP1 PUSH2 0xFF7 JUMP JUMPDEST DUP1 ISZERO PUSH2 0xC71 JUMPI DUP1 PUSH1 0x1F LT PUSH2 0xC46 JUMPI PUSH2 0x100 DUP1 DUP4 SLOAD DIV MUL DUP4 MSTORE SWAP2 PUSH1 0x20 ADD SWAP2 PUSH2 0xC71 JUMP JUMPDEST DUP3 ADD SWAP2 SWAP1 PUSH1 0x0 MSTORE PUSH1 0x20 PUSH1 0x0 KECCAK256 SWAP1 JUMPDEST DUP2 SLOAD DUP2 MSTORE SWAP1 PUSH1 0x1 ADD SWAP1 PUSH1 0x20 ADD DUP1 DUP4 GT PUSH2 0xC54 JUMPI DUP3 SWAP1 SUB PUSH1 0x1F AND DUP3 ADD SWAP2 JUMPDEST POP POP POP POP POP SWAP1 DUP1 PUSH1 0x1 ADD SLOAD SWAP1 DUP1 PUSH1 0x2 ADD DUP1 SLOAD PUSH2 0xC8C SWAP1 PUSH2 0xFF7 JUMP JUMPDEST DUP1 PUSH1 0x1F ADD PUSH1 0x20 DUP1 SWAP2 DIV MUL PUSH1 0x20 ADD PUSH1 0x40 MLOAD SWAP1 DUP2 ADD PUSH1 0x40 MSTORE DUP1 SWAP3 SWAP2 SWAP1 DUP2 DUP2 MSTORE PUSH1 0x20 ADD DUP3 DUP1 SLOAD PUSH2 0xCB8 SWAP1 PUSH2 0xFF7 JUMP JUMPDEST DUP1 ISZERO PUSH2 0xD05 JUMPI DUP1 PUSH1 0x1F LT PUSH2 0xCDA JUMPI PUSH2 0x100 DUP1 DUP4 SLOAD DIV MUL DUP4 MSTORE SWAP2 PUSH1 0x20 ADD SWAP2 PUSH2 0xD05 JUMP JUMPDEST DUP3 ADD SWAP2 SWAP1 PUSH1 0x0 MSTORE PUSH1 0x20 PUSH1 0x0 KECCAK256 SWAP1 JUMPDEST DUP2 SLOAD DUP2 MSTORE SWAP1 PUSH1 0x1 ADD SWAP1 PUSH1 0x20 ADD DUP1 DUP4 GT PUSH2 0xCE8 JUMPI DUP3 SWAP1 SUB PUSH1 0x1F AND DUP3 ADD SWAP2 JUMPDEST POP POP POP PUSH1 0x3 SWAP1 SWAP4 ADD SLOAD SWAP2 SWAP3 POP POP PUSH1 0x1 PUSH1 0x1 PUSH1 0xA0 SHL SUB AND DUP5 JUMP JUMPDEST DUP1 CALLDATALOAD PUSH1 0x1 PUSH1 0x1 PUSH1 0xA0 SHL SUB DUP2 AND DUP2 EQ PUSH2 0xD35 JUMPI PUSH1 0x0 DUP1 REVERT JUMPDEST SWAP2 SWAP1 POP JUMP JUMPDEST PUSH1 0x0 PUSH1 0x20 DUP3 DUP5 SUB SLT ISZERO PUSH2 0xD4C JUMPI PUSH1 0x0 DUP1 REVERT JUMPDEST PUSH2 0xD55 DUP3 PUSH2 0xD1E JUMP JUMPDEST SWAP4 SWAP3 POP POP POP JUMP JUMPDEST PUSH4 0x4E487B71 PUSH1 0xE0 SHL PUSH1 0x0 MSTORE PUSH1 0x21 PUSH1 0x4 MSTORE PUSH1 0x24 PUSH1 0x0 REVERT JUMPDEST PUSH1 0x20 DUP2 ADD PUSH1 0x3 DUP4 LT PUSH2 0xD94 JUMPI PUSH4 0x4E487B71 PUSH1 0xE0 SHL PUSH1 0x0 MSTORE PUSH1 0x21 PUSH1 0x4 MSTORE PUSH1 0x24 PUSH1 0x0 REVERT JUMPDEST SWAP2 SWAP1 MSTORE SWAP1 JUMP JUMPDEST PUSH4 0x4E487B71 PUSH1 0xE0 SHL PUSH1 0x0 MSTORE PUSH1 0x41 PUSH1 0x4 MSTORE PUSH1 0x24 PUSH1 0x0 REVERT JUMPDEST PUSH1 0x0 DUP3 PUSH1 0x1F DUP4 ADD SLT PUSH2 0xDC1 JUMPI PUSH1 0x0 DUP1 REVERT JUMPDEST DUP2 CALLDATALOAD PUSH8 0xFFFFFFFFFFFFFFFF DUP1 DUP3 GT ISZERO PUSH2 0xDDC JUMPI PUSH2 0xDDC PUSH2 0xD9A JUMP JUMPDEST PUSH1 0x40 MLOAD PUSH1 0x1F DUP4 ADD PUSH1 0x1F NOT SWAP1 DUP2 AND PUSH1 0x3F ADD AND DUP2 ADD SWAP1 DUP3 DUP3 GT DUP2 DUP4 LT OR ISZERO PUSH2 0xE04 JUMPI PUSH2 0xE04 PUSH2 0xD9A JUMP JUMPDEST DUP2 PUSH1 0x40 MSTORE DUP4 DUP2 MSTORE DUP7 PUSH1 0x20 DUP6 DUP9 ADD ADD GT ISZERO PUSH2 0xE1D JUMPI PUSH1 0x0 DUP1 REVERT JUMPDEST DUP4 PUSH1 0x20 DUP8 ADD PUSH1 0x20 DUP4 ADD CALLDATACOPY PUSH1 0x0 PUSH1 0x20 DUP6 DUP4 ADD ADD MSTORE DUP1 SWAP5 POP POP POP POP POP SWAP3 SWAP2 POP POP JUMP JUMPDEST PUSH1 0x0 DUP1 PUSH1 0x0 PUSH1 0x60 DUP5 DUP7 SUB SLT ISZERO PUSH2 0xE52 JUMPI PUSH1 0x0 DUP1 REVERT JUMPDEST DUP4 CALLDATALOAD PUSH8 0xFFFFFFFFFFFFFFFF DUP2 GT ISZERO PUSH2 0xE69 JUMPI PUSH1 0x0 DUP1 REVERT JUMPDEST PUSH2 0xE75 DUP7 DUP3 DUP8 ADD PUSH2 0xDB0 JUMP JUMPDEST SWAP4 POP POP PUSH1 0x20 DUP5 ADD CALLDATALOAD SWAP2 POP PUSH2 0xE8B PUSH1 0x40 DUP6 ADD PUSH2 0xD1E JUMP JUMPDEST SWAP1 POP SWAP3 POP SWAP3 POP SWAP3 JUMP JUMPDEST PUSH1 0x0 DUP1 PUSH1 0x0 DUP1 PUSH1 0x80 DUP6 DUP8 SUB SLT ISZERO PUSH2 0xEAA JUMPI PUSH1 0x0 DUP1 REVERT JUMPDEST DUP5 CALLDATALOAD PUSH8 0xFFFFFFFFFFFFFFFF DUP1 DUP3 GT ISZERO PUSH2 0xEC2 JUMPI PUSH1 0x0 DUP1 REVERT JUMPDEST PUSH2 0xECE DUP9 DUP4 DUP10 ADD PUSH2 0xDB0 JUMP JUMPDEST SWAP6 POP PUSH1 0x20 DUP8 ADD CALLDATALOAD SWAP5 POP PUSH1 0x40 DUP8 ADD CALLDATALOAD SWAP2 POP DUP1 DUP3 GT ISZERO PUSH2 0xEEB JUMPI PUSH1 0x0 DUP1 REVERT JUMPDEST POP PUSH2 0xEF8 DUP8 DUP3 DUP9 ADD PUSH2 0xDB0 JUMP JUMPDEST SWAP3 POP POP PUSH2 0xF07 PUSH1 0x60 DUP7 ADD PUSH2 0xD1E JUMP JUMPDEST SWAP1 POP SWAP3 SWAP6 SWAP2 SWAP5 POP SWAP3 POP JUMP JUMPDEST PUSH1 0x0 DUP2 MLOAD DUP1 DUP5 MSTORE PUSH1 0x0 JUMPDEST DUP2 DUP2 LT ISZERO PUSH2 0xF38 JUMPI PUSH1 0x20 DUP2 DUP6 ADD DUP2 ADD MLOAD DUP7 DUP4 ADD DUP3 ADD MSTORE ADD PUSH2 0xF1C JUMP JUMPDEST POP PUSH1 0x0 PUSH1 0x20 DUP3 DUP7 ADD ADD MSTORE PUSH1 0x20 PUSH1 0x1F NOT PUSH1 0x1F DUP4 ADD AND DUP6 ADD ADD SWAP2 POP POP SWAP3 SWAP2 POP POP JUMP JUMPDEST PUSH1 0xA0 DUP2 MSTORE PUSH1 0x0 PUSH2 0xF6B PUSH1 0xA0 DUP4 ADD DUP9 PUSH2 0xF12 JUMP JUMPDEST PUSH1 0x20 DUP4 ADD SWAP7 SWAP1 SWAP7 MSTORE POP SWAP3 ISZERO ISZERO PUSH1 0x40 DUP5 ADD MSTORE SWAP1 ISZERO ISZERO PUSH1 0x60 DUP4 ADD MSTORE PUSH1 0x1 PUSH1 0x1 PUSH1 0xA0 SHL SUB AND PUSH1 0x80 SWAP1 SWAP2 ADD MSTORE SWAP2 SWAP1 POP JUMP JUMPDEST PUSH1 0x0 PUSH1 0x20 DUP3 DUP5 SUB SLT ISZERO PUSH2 0xFAA JUMPI PUSH1 0x0 DUP1 REVERT JUMPDEST POP CALLDATALOAD SWAP2 SWAP1 POP JUMP JUMPDEST PUSH1 0x80 DUP2 MSTORE PUSH1 0x0 PUSH2 0xFC4 PUSH1 0x80 DUP4 ADD DUP8 PUSH2 0xF12 JUMP JUMPDEST DUP6 PUSH1 0x20 DUP5 ADD MSTORE DUP3 DUP2 SUB PUSH1 0x40 DUP5 ADD MSTORE PUSH2 0xFDC DUP2 DUP7 PUSH2 0xF12 JUMP JUMPDEST SWAP2 POP POP PUSH1 0x1 PUSH1 0x1 PUSH1 0xA0 SHL SUB DUP4 AND PUSH1 0x60 DUP4 ADD MSTORE SWAP6 SWAP5 POP POP POP POP POP JUMP JUMPDEST PUSH1 0x1 DUP2 DUP2 SHR SWAP1 DUP3 AND DUP1 PUSH2 0x100B JUMPI PUSH1 0x7F DUP3 AND SWAP2 POP JUMPDEST PUSH1 0x20 DUP3 LT DUP2 SUB PUSH2 0x102B JUMPI PUSH4 0x4E487B71 PUSH1 0xE0 SHL PUSH1 0x0 MSTORE PUSH1 0x22 PUSH1 0x4 MSTORE PUSH1 0x24 PUSH1 0x0 REVERT JUMPDEST POP SWAP2 SWAP1 POP JUMP JUMPDEST PUSH1 0x1F DUP3 GT ISZERO PUSH2 0x107B JUMPI PUSH1 0x0 DUP2 DUP2 MSTORE PUSH1 0x20 DUP2 KECCAK256 PUSH1 0x1F DUP6 ADD PUSH1 0x5 SHR DUP2 ADD PUSH1 0x20 DUP7 LT ISZERO PUSH2 0x1058 JUMPI POP DUP1 JUMPDEST PUSH1 0x1F DUP6 ADD PUSH1 0x5 SHR DUP3 ADD SWAP2 POP JUMPDEST DUP2 DUP2 LT ISZERO PUSH2 0x1077 JUMPI DUP3 DUP2 SSTORE PUSH1 0x1 ADD PUSH2 0x1064 JUMP JUMPDEST POP POP POP JUMPDEST POP POP POP JUMP JUMPDEST DUP2 MLOAD PUSH8 0xFFFFFFFFFFFFFFFF DUP2 GT ISZERO PUSH2 0x109A JUMPI PUSH2 0x109A PUSH2 0xD9A JUMP JUMPDEST PUSH2 0x10AE DUP2 PUSH2 0x10A8 DUP5 SLOAD PUSH2 0xFF7 JUMP JUMPDEST DUP5 PUSH2 0x1031 JUMP JUMPDEST PUSH1 0x20 DUP1 PUSH1 0x1F DUP4 GT PUSH1 0x1 DUP2 EQ PUSH2 0x10E3 JUMPI PUSH1 0x0 DUP5 ISZERO PUSH2 0x10CB JUMPI POP DUP6 DUP4 ADD MLOAD JUMPDEST PUSH1 0x0 NOT PUSH1 0x3 DUP7 SWAP1 SHL SHR NOT AND PUSH1 0x1 DUP6 SWAP1 SHL OR DUP6 SSTORE PUSH2 0x1077 JUMP JUMPDEST PUSH1 0x0 DUP6 DUP2 MSTORE PUSH1 0x20 DUP2 KECCAK256 PUSH1 0x1F NOT DUP7 AND SWAP2 JUMPDEST DUP3 DUP2 LT ISZERO PUSH2 0x1112 JUMPI DUP9 DUP7 ADD MLOAD DUP3 SSTORE SWAP5 DUP5 ADD SWAP5 PUSH1 0x1 SWAP1 SWAP2 ADD SWAP1 DUP5 ADD PUSH2 0x10F3 JUMP JUMPDEST POP DUP6 DUP3 LT ISZERO PUSH2 0x1130 JUMPI DUP8 DUP6 ADD MLOAD PUSH1 0x0 NOT PUSH1 0x3 DUP9 SWAP1 SHL PUSH1 0xF8 AND SHR NOT AND DUP2 SSTORE JUMPDEST POP POP POP POP POP PUSH1 0x1 SWAP1 DUP2 SHL ADD SWAP1 SSTORE POP JUMP JUMPDEST PUSH4 0x4E487B71 PUSH1 0xE0 SHL PUSH1 0x0 MSTORE PUSH1 0x32 PUSH1 0x4 MSTORE PUSH1 0x24 PUSH1 0x0 REVERT JUMPDEST PUSH4 0x4E487B71 PUSH1 0xE0 SHL PUSH1 0x0 MSTORE PUSH1 0x11 PUSH1 0x4 MSTORE PUSH1 0x24 PUSH1 0x0 REVERT JUMPDEST PUSH1 0x0 PUSH1 0x1 DUP3 ADD PUSH2 0x117E JUMPI PUSH2 0x117E PUSH2 0x1156 JUMP JUMPDEST POP PUSH1 0x1 ADD SWAP1 JUMP JUMPDEST PUSH4 0x4E487B71 PUSH1 0xE0 SHL PUSH1 0x0 MSTORE PUSH1 0x1 PUSH1 0x4 MSTORE PUSH1 0x24 PUSH1 0x0 REVERT JUMPDEST DUP1 DUP3 ADD DUP1 DUP3 GT ISZERO PUSH2 0x11AE JUMPI PUSH2 0x11AE PUSH2 0x1156 JUMP JUMPDEST SWAP3 SWAP2 POP POP JUMP INVALID LOG2 PUSH5 0x6970667358 0x22 SLT KECCAK256 LOG2 AND 0xE PUSH10 0x60DBEE1C1E04A8A00FE2 0xCF 0x49 ADD 0xDC LT 0xEC SWAP14 SWAP14 ADDMOD 0xB4 SDIV GASPRICE SLOAD SWAP15 0xEE DIFFICULTY PUSH19 0x2C64736F6C6343000811003300000000000000 "
    },
    "gasEstimates": {
      "creation": {
        "codeDepositCost": "917200",
        "executionCost": "25190",
        "totalCost": "942390"
      },
      "external": {
        "candidateInfo(address)": "infinite",
        "candidatesList(uint256)": "4658",
        "contractOwner()": "2404",
        "hasValidVoterPass(address)": "2611",
        "hasVoted(address)": "2544",
        "registerCandidates(string,uint256,string,address)": "infinite",
        "registerVoter(string,uint256,address)": "infinite",
        "registeredVoters(address)": "2587",
        "result()": "infinite",
        "setStatus()": "28752",
        "status()": "2397",
        "validateCandidate(address)": "infinite",
        "vote(address)": "infinite",
        "voteCounts(address)": "infinite",
        "voterInfo(address)": "infinite",
        "votesReceived(address)": "2587",
        "winner()": "2403",
        "winnerVotes()": "2318"
      }
    },
    "methodIdentifiers": {
      "candidateInfo(address)": "e965b7c9",
      "candidatesList(uint256)": "df2d5ec7",
      "contractOwner()": "ce606ee0",
      "hasValidVoterPass(address)": "6c0ef89d",
      "hasVoted(address)": "09eef43e",
      "registerCandidates(string,uint256,string,address)": "5dfb9f08",
      "registerVoter(string,uint256,address)": "4b841591",
      "registeredVoters(address)": "a9ff6df1",
      "result()": "65372147",
      "setStatus()": "c0336629",
      "status()": "200d2ed2",
      "validateCandidate(address)": "9c0d4436",
      "vote(address)": "6dd7d8ea",
      "voteCounts(address)": "66a267a9",
      "voterInfo(address)": "cdf58d35",
      "votesReceived(address)": "30c880c3",
      "winner()": "dfbf53ae",
      "winnerVotes()": "7b3a74c6"
    }
  },
  "storageLayout": {
    "storage": [
      {
        "astId": 3,
        "contract": "vs-contract.sol:Voting",
        "label": "contractOwner",
        "offset": 0,
        "slot": "0",
        "type": "t_address"
      },
      {
        "astId": 6,
        "contract": "vs-contract.sol:Voting",
        "label": "candidatesList",
        "offset": 0,
        "slot": "1",
        "type": "t_array(t_address)dyn_storage"
      },
      {
        "astId": 10,
        "contract": "vs-contract.sol:Voting",
        "label": "votesReceived",
        "offset": 0,
        "slot": "2",
        "type": "t_mapping(t_address,t_uint256)"
      },
      {
        "astId": 12,
        "contract": "vs-contract.sol:Voting",
        "label": "winner",
        "offset": 0,
        "slot": "3",
        "type": "t_address"
      },
      {
        "astId": 14,
        "contract": "vs-contract.sol:Voting",
        "label": "winnerVotes",
        "offset": 0,
        "slot": "4",
        "type": "t_uint256"
      },
      {
        "astId": 21,
        "contract": "vs-contract.sol:Voting",
        "label": "status",
        "offset": 0,
        "slot": "5",
        "type": "t_enum(VotingStatus)18"
      },
      {
        "astId": 25,
        "contract": "vs-contract.sol:Voting",
        "label": "registeredVoters",
        "offset": 0,
        "slot": "6",
        "type": "t_mapping(t_address,t_bool)"
      },
      {
        "astId": 29,
        "contract": "vs-contract.sol:Voting",
        "label": "hasVoted",
        "offset": 0,
        "slot": "7",
        "type": "t_mapping(t_address,t_bool)"
      },
      {
        "astId": 43,
        "contract": "vs-contract.sol:Voting",
        "label": "candidateInfo",
        "offset": 0,
        "slot": "8",
        "type": "t_mapping(t_address,t_struct(Candidate)38_storage)"
      },
      {
        "astId": 59,
        "contract": "vs-contract.sol:Voting",
        "label": "voterInfo",
        "offset": 0,
        "slot": "9",
        "type": "t_mapping(t_address,t_struct(Voter)54_storage)"
      }
    ],
    "types": {
      "t_address": {
        "encoding": "inplace",
        "label": "address",
        "numberOfBytes": "20"
      },
      "t_array(t_address)dyn_storage": {
        "base": "t_address",
        "encoding": "dynamic_array",
        "label": "address[]",
        "numberOfBytes": "32"
      },
      "t_bool": {
        "encoding": "inplace",
        "label": "bool",
        "numberOfBytes": "1"
      },
      "t_enum(VotingStatus)18": {
        "encoding": "inplace",
        "label": "enum Voting.VotingStatus",
        "numberOfBytes": "1"
      },
      "t_mapping(t_address,t_bool)": {
        "encoding": "mapping",
        "key": "t_address",
        "label": "mapping(address => bool)",
        "numberOfBytes": "32",
        "value": "t_bool"
      },
      "t_mapping(t_address,t_struct(Candidate)38_storage)": {
        "encoding": "mapping",
        "key": "t_address",
        "label": "mapping(address => struct Voting.Candidate)",
        "numberOfBytes": "32",
        "value": "t_struct(Candidate)38_storage"
      },
      "t_mapping(t_address,t_struct(Voter)54_storage)": {
        "encoding": "mapping",
        "key": "t_address",
        "label": "mapping(address => struct Voting.Voter)",
        "numberOfBytes": "32",
        "value": "t_struct(Voter)54_storage"
      },
      "t_mapping(t_address,t_uint256)": {
        "encoding": "mapping",
        "key": "t_address",
        "label": "mapping(address => uint256)",
        "numberOfBytes": "32",
        "value": "t_uint256"
      },
      "t_string_storage": {
        "encoding": "bytes",
        "label": "string",
        "numberOfBytes": "32"
      },
      "t_struct(Candidate)38_storage": {
        "encoding": "inplace",
        "label": "struct Voting.Candidate",
        "members": [
          {
            "astId": 31,
            "contract": "vs-contract.sol:Voting",
            "label": "name",
            "offset": 0,
            "slot": "0",
            "type": "t_string_storage"
          },
          {
            "astId": 33,
            "contract": "vs-contract.sol:Voting",
            "label": "age",
            "offset": 0,
            "slot": "1",
            "type": "t_uint256"
          },
          {
            "astId": 35,
            "contract": "vs-contract.sol:Voting",
            "label": "symbol",
            "offset": 0,
            "slot": "2",
            "type": "t_string_storage"
          },
          {
            "astId": 37,
            "contract": "vs-contract.sol:Voting",
            "label": "candidateAddress",
            "offset": 0,
            "slot": "3",
            "type": "t_address"
          }
        ],
        "numberOfBytes": "128"
      },
      "t_struct(Voter)54_storage": {
        "encoding": "inplace",
        "label": "struct Voting.Voter",
        "members": [
          {
            "astId": 45,
            "contract": "vs-contract.sol:Voting",
            "label": "name",
            "offset": 0,
            "slot": "0",
            "type": "t_string_storage"
          },
          {
            "astId": 47,
            "contract": "vs-contract.sol:Voting",
            "label": "age",
            "offset": 0,
            "slot": "1",
            "type": "t_uint256"
          },
          {
            "astId": 49,
            "contract": "vs-contract.sol:Voting",
            "label": "hasValidVoterPass",
            "offset": 0,
            "slot": "2",
            "type": "t_bool"
          },
          {
            "astId": 51,
            "contract": "vs-contract.sol:Voting",
            "label": "hasVoted",
            "offset": 1,
            "slot": "2",
            "type": "t_bool"
          },
          {
            "astId": 53,
            "contract": "vs-contract.sol:Voting",
            "label": "voterAddress",
            "offset": 2,
            "slot": "2",
            "type": "t_address"
          }
        ],
        "numberOfBytes": "96"
      },
      "t_uint256": {
        "encoding": "inplace",
        "label": "uint256",
        "numberOfBytes": "32"
      }
    }
  },
  "userdoc": {
    "kind": "user",
    "methods": {},
    "version": 1
  }
}